No.     Time           Source                Destination           Protocol Length Info
    345 84.007204      OneplusT_6e:ef:ab (OnePlus 5) f1:01:a5:4e:ff:42 (E3DS JEKSAOHHEEHI ) ATT      16     Sent Read By Group Type Request, GATT Primary Service Declaration, Handles: 0x0001..0xffff

Frame 345: 16 bytes on wire (128 bits), 16 bytes captured (128 bits)
Bluetooth
    [Source: OneplusT_6e:ef:ab (94:65:2d:6e:ef:ab)]
    [Destination: f1:01:a5:4e:ff:42 (f1:01:a5:4e:ff:42)]
Bluetooth HCI H4
    [Direction: Sent (0x00)]
    HCI Packet Type: ACL Data (0x02)
Bluetooth HCI ACL Packet
Bluetooth L2CAP Protocol
Bluetooth Attribute Protocol
    Opcode: Read By Group Type Request (0x10)
    Starting Handle: 0x0001
    Ending Handle: 0xffff
    UUID: GATT Primary Service Declaration (0x2800)
    [Response in Frame: 348]

0000  02 04 00 0b 00 07 00 04 00 10 01 00 ff ff 00 28   ...............(

No.     Time           Source                Destination           Protocol Length Info
    348 84.128620      f1:01:a5:4e:ff:42 (E3DS JEKSAOHHEEHI ) OneplusT_6e:ef:ab (OnePlus 5) ATT      23     Rcvd Read By Group Type Response, Attribute List Length: 2, Generic Access Profile, Generic Attribute Profile

Frame 348: 23 bytes on wire (184 bits), 23 bytes captured (184 bits)
Bluetooth
    [Source: f1:01:a5:4e:ff:42 (f1:01:a5:4e:ff:42)]
    [Destination: OneplusT_6e:ef:ab (94:65:2d:6e:ef:ab)]
Bluetooth HCI H4
    [Direction: Rcvd (0x01)]
    HCI Packet Type: ACL Data (0x02)
Bluetooth HCI ACL Packet
Bluetooth L2CAP Protocol
Bluetooth Attribute Protocol
    Opcode: Read By Group Type Response (0x11)
    Length: 6
    Attribute Data, Handle: 0x0001, Group End Handle: 0x0007, UUID: Generic Access Profile
        Handle: 0x0001 (Generic Access Profile)
        Group End Handle: 0x0007
        UUID: Generic Access Profile (0x1800)
    Attribute Data, Handle: 0x0008, Group End Handle: 0x000b, UUID: Generic Attribute Profile
        Handle: 0x0008 (Generic Attribute Profile)
        Group End Handle: 0x000b
        UUID: Generic Attribute Profile (0x1801)
    [UUID: GATT Primary Service Declaration (0x2800)]
    [Request in Frame: 345]

0000  02 04 20 12 00 0e 00 04 00 11 06 01 00 07 00 00   .. .............
0010  18 08 00 0b 00 01 18                              .......

No.     Time           Source                Destination           Protocol Length Info
    349 84.129024      OneplusT_6e:ef:ab (OnePlus 5) f1:01:a5:4e:ff:42 (E3DS JEKSAOHHEEHI ) ATT      16     Sent Read By Group Type Request, GATT Primary Service Declaration, Handles: 0x000c..0xffff

Frame 349: 16 bytes on wire (128 bits), 16 bytes captured (128 bits)
Bluetooth
    [Source: OneplusT_6e:ef:ab (94:65:2d:6e:ef:ab)]
    [Destination: f1:01:a5:4e:ff:42 (f1:01:a5:4e:ff:42)]
Bluetooth HCI H4
    [Direction: Sent (0x00)]
    HCI Packet Type: ACL Data (0x02)
Bluetooth HCI ACL Packet
Bluetooth L2CAP Protocol
Bluetooth Attribute Protocol
    Opcode: Read By Group Type Request (0x10)
    Starting Handle: 0x000c
    Ending Handle: 0xffff
    UUID: GATT Primary Service Declaration (0x2800)
    [Response in Frame: 352]

0000  02 04 00 0b 00 07 00 04 00 10 0c 00 ff ff 00 28   ...............(

No.     Time           Source                Destination           Protocol Length Info
    352 84.221053      f1:01:a5:4e:ff:42 (E3DS JEKSAOHHEEHI ) OneplusT_6e:ef:ab (OnePlus 5) ATT      31     Rcvd Read By Group Type Response, Attribute List Length: 1, Unknown

Frame 352: 31 bytes on wire (248 bits), 31 bytes captured (248 bits)
Bluetooth
    [Source: f1:01:a5:4e:ff:42 (f1:01:a5:4e:ff:42)]
    [Destination: OneplusT_6e:ef:ab (94:65:2d:6e:ef:ab)]
Bluetooth HCI H4
    [Direction: Rcvd (0x01)]
    HCI Packet Type: ACL Data (0x02)
Bluetooth HCI ACL Packet
Bluetooth L2CAP Protocol
Bluetooth Attribute Protocol
    Opcode: Read By Group Type Response (0x11)
    Length: 20
    Attribute Data, Handle: 0x000c, Group End Handle: 0x000e, UUID128: Unknown
        Handle: 0x000c (Unknown)
        Group End Handle: 0x000e
        UUID: 20204543495652455320524553414c53
    [UUID: GATT Primary Service Declaration (0x2800)]
    [Request in Frame: 349]

0000  02 04 20 1a 00 16 00 04 00 11 14 0c 00 0e 00 20   .. ............ 
0010  20 45 43 49 56 52 45 53 20 52 45 53 41 4c 53       ECIVRES RESALS

No.     Time           Source                Destination           Protocol Length Info
    353 84.221612      OneplusT_6e:ef:ab (OnePlus 5) f1:01:a5:4e:ff:42 (E3DS JEKSAOHHEEHI ) ATT      16     Sent Read By Group Type Request, GATT Primary Service Declaration, Handles: 0x000f..0xffff

Frame 353: 16 bytes on wire (128 bits), 16 bytes captured (128 bits)
Bluetooth
    [Source: OneplusT_6e:ef:ab (94:65:2d:6e:ef:ab)]
    [Destination: f1:01:a5:4e:ff:42 (f1:01:a5:4e:ff:42)]
Bluetooth HCI H4
    [Direction: Sent (0x00)]
    HCI Packet Type: ACL Data (0x02)
Bluetooth HCI ACL Packet
Bluetooth L2CAP Protocol
Bluetooth Attribute Protocol
    Opcode: Read By Group Type Request (0x10)
    Starting Handle: 0x000f
    Ending Handle: 0xffff
    UUID: GATT Primary Service Declaration (0x2800)
    [Response in Frame: 355]

0000  02 04 00 0b 00 07 00 04 00 10 0f 00 ff ff 00 28   ...............(

No.     Time           Source                Destination           Protocol Length Info
    355 84.309586      f1:01:a5:4e:ff:42 (E3DS JEKSAOHHEEHI ) OneplusT_6e:ef:ab (OnePlus 5) ATT      31     Rcvd Read By Group Type Response, Attribute List Length: 1, Unknown

Frame 355: 31 bytes on wire (248 bits), 31 bytes captured (248 bits)
Bluetooth
    [Source: f1:01:a5:4e:ff:42 (f1:01:a5:4e:ff:42)]
    [Destination: OneplusT_6e:ef:ab (94:65:2d:6e:ef:ab)]
Bluetooth HCI H4
    [Direction: Rcvd (0x01)]
    HCI Packet Type: ACL Data (0x02)
Bluetooth HCI ACL Packet
Bluetooth L2CAP Protocol
Bluetooth Attribute Protocol
    Opcode: Read By Group Type Response (0x11)
    Length: 20
    Attribute Data, Handle: 0x000f, Group End Handle: 0x001a, UUID128: Unknown
        Handle: 0x000f (Unknown)
        Group End Handle: 0x001a
        UUID: 20204543495652455320524f544f4d53
    [UUID: GATT Primary Service Declaration (0x2800)]
    [Request in Frame: 353]

0000  02 04 20 1a 00 16 00 04 00 11 14 0f 00 1a 00 20   .. ............ 
0010  20 45 43 49 56 52 45 53 20 52 4f 54 4f 4d 53       ECIVRES ROTOMS

No.     Time           Source                Destination           Protocol Length Info
    356 84.310082      OneplusT_6e:ef:ab (OnePlus 5) f1:01:a5:4e:ff:42 (E3DS JEKSAOHHEEHI ) ATT      16     Sent Read By Group Type Request, GATT Primary Service Declaration, Handles: 0x001b..0xffff

Frame 356: 16 bytes on wire (128 bits), 16 bytes captured (128 bits)
Bluetooth
    [Source: OneplusT_6e:ef:ab (94:65:2d:6e:ef:ab)]
    [Destination: f1:01:a5:4e:ff:42 (f1:01:a5:4e:ff:42)]
Bluetooth HCI H4
    [Direction: Sent (0x00)]
    HCI Packet Type: ACL Data (0x02)
Bluetooth HCI ACL Packet
Bluetooth L2CAP Protocol
Bluetooth Attribute Protocol
    Opcode: Read By Group Type Request (0x10)
    Starting Handle: 0x001b
    Ending Handle: 0xffff
    UUID: GATT Primary Service Declaration (0x2800)
    [Response in Frame: 358]

0000  02 04 00 0b 00 07 00 04 00 10 1b 00 ff ff 00 28   ...............(

No.     Time           Source                Destination           Protocol Length Info
    358 84.398852      f1:01:a5:4e:ff:42 (E3DS JEKSAOHHEEHI ) OneplusT_6e:ef:ab (OnePlus 5) ATT      31     Rcvd Read By Group Type Response, Attribute List Length: 1, Unknown

Frame 358: 31 bytes on wire (248 bits), 31 bytes captured (248 bits)
Bluetooth
    [Source: f1:01:a5:4e:ff:42 (f1:01:a5:4e:ff:42)]
    [Destination: OneplusT_6e:ef:ab (94:65:2d:6e:ef:ab)]
Bluetooth HCI H4
    [Direction: Rcvd (0x01)]
    HCI Packet Type: ACL Data (0x02)
Bluetooth HCI ACL Packet
Bluetooth L2CAP Protocol
Bluetooth Attribute Protocol
    Opcode: Read By Group Type Response (0x11)
    Length: 20
    Attribute Data, Handle: 0x001b, Group End Handle: 0xffff, UUID128: Unknown
        Handle: 0x001b (Unknown)
        Group End Handle: 0xffff
        UUID: 20202020454349565245532044454c53
    [UUID: GATT Primary Service Declaration (0x2800)]
    [Request in Frame: 356]

0000  02 04 20 1a 00 16 00 04 00 11 14 1b 00 ff ff 20   .. ............ 
0010  20 20 20 45 43 49 56 52 45 53 20 44 45 4c 53         ECIVRES DELS

No.     Time           Source                Destination           Protocol Length Info
    359 84.399646      OneplusT_6e:ef:ab (OnePlus 5) f1:01:a5:4e:ff:42 (E3DS JEKSAOHHEEHI ) ATT      16     Sent Read By Type Request, GATT Include Declaration, Handles: 0x0001..0x0007

Frame 359: 16 bytes on wire (128 bits), 16 bytes captured (128 bits)
Bluetooth
    [Source: OneplusT_6e:ef:ab (94:65:2d:6e:ef:ab)]
    [Destination: f1:01:a5:4e:ff:42 (f1:01:a5:4e:ff:42)]
Bluetooth HCI H4
    [Direction: Sent (0x00)]
    HCI Packet Type: ACL Data (0x02)
Bluetooth HCI ACL Packet
Bluetooth L2CAP Protocol
Bluetooth Attribute Protocol
    Opcode: Read By Type Request (0x08)
    Starting Handle: 0x0001
    Ending Handle: 0x0007
    UUID: GATT Include Declaration (0x2802)

0000  02 04 00 0b 00 07 00 04 00 08 01 00 07 00 02 28   ...............(

No.     Time           Source                Destination           Protocol Length Info
    393 87.198707      OneplusT_6e:ef:ab (OnePlus 5) e1:60:1f:8e:2f:d3 (E3DT MMLSAOHHEEHI ) ATT      16     Sent Read By Group Type Request, GATT Primary Service Declaration, Handles: 0x0001..0xffff

Frame 393: 16 bytes on wire (128 bits), 16 bytes captured (128 bits)
Bluetooth
    [Source: OneplusT_6e:ef:ab (94:65:2d:6e:ef:ab)]
    [Destination: e1:60:1f:8e:2f:d3 (e1:60:1f:8e:2f:d3)]
Bluetooth HCI H4
    [Direction: Sent (0x00)]
    HCI Packet Type: ACL Data (0x02)
Bluetooth HCI ACL Packet
Bluetooth L2CAP Protocol
Bluetooth Attribute Protocol
    Opcode: Read By Group Type Request (0x10)
    Starting Handle: 0x0001
    Ending Handle: 0xffff
    UUID: GATT Primary Service Declaration (0x2800)
    [Response in Frame: 400]

0000  02 05 00 0b 00 07 00 04 00 10 01 00 ff ff 00 28   ...............(

No.     Time           Source                Destination           Protocol Length Info
    400 87.332465      e1:60:1f:8e:2f:d3 (E3DT MMLSAOHHEEHI ) OneplusT_6e:ef:ab (OnePlus 5) ATT      23     Rcvd Read By Group Type Response, Attribute List Length: 2, Generic Access Profile, Generic Attribute Profile

Frame 400: 23 bytes on wire (184 bits), 23 bytes captured (184 bits)
Bluetooth
    [Source: e1:60:1f:8e:2f:d3 (e1:60:1f:8e:2f:d3)]
    [Destination: OneplusT_6e:ef:ab (94:65:2d:6e:ef:ab)]
Bluetooth HCI H4
    [Direction: Rcvd (0x01)]
    HCI Packet Type: ACL Data (0x02)
Bluetooth HCI ACL Packet
Bluetooth L2CAP Protocol
Bluetooth Attribute Protocol
    Opcode: Read By Group Type Response (0x11)
    Length: 6
    Attribute Data, Handle: 0x0001, Group End Handle: 0x0007, UUID: Generic Access Profile
        Handle: 0x0001 (Generic Access Profile)
        Group End Handle: 0x0007
        UUID: Generic Access Profile (0x1800)
    Attribute Data, Handle: 0x0008, Group End Handle: 0x000b, UUID: Generic Attribute Profile
        Handle: 0x0008 (Generic Attribute Profile)
        Group End Handle: 0x000b
        UUID: Generic Attribute Profile (0x1801)
    [UUID: GATT Primary Service Declaration (0x2800)]
    [Request in Frame: 393]

0000  02 05 20 12 00 0e 00 04 00 11 06 01 00 07 00 00   .. .............
0010  18 08 00 0b 00 01 18                              .......

No.     Time           Source                Destination           Protocol Length Info
    401 87.333350      OneplusT_6e:ef:ab (OnePlus 5) e1:60:1f:8e:2f:d3 (E3DT MMLSAOHHEEHI ) ATT      16     Sent Read By Group Type Request, GATT Primary Service Declaration, Handles: 0x000c..0xffff

Frame 401: 16 bytes on wire (128 bits), 16 bytes captured (128 bits)
Bluetooth
    [Source: OneplusT_6e:ef:ab (94:65:2d:6e:ef:ab)]
    [Destination: e1:60:1f:8e:2f:d3 (e1:60:1f:8e:2f:d3)]
Bluetooth HCI H4
    [Direction: Sent (0x00)]
    HCI Packet Type: ACL Data (0x02)
Bluetooth HCI ACL Packet
Bluetooth L2CAP Protocol
Bluetooth Attribute Protocol
    Opcode: Read By Group Type Request (0x10)
    Starting Handle: 0x000c
    Ending Handle: 0xffff
    UUID: GATT Primary Service Declaration (0x2800)
    [Response in Frame: 404]

0000  02 05 00 0b 00 07 00 04 00 10 0c 00 ff ff 00 28   ...............(

No.     Time           Source                Destination           Protocol Length Info
    404 87.423419      e1:60:1f:8e:2f:d3 (E3DT MMLSAOHHEEHI ) OneplusT_6e:ef:ab (OnePlus 5) ATT      31     Rcvd Read By Group Type Response, Attribute List Length: 1, Unknown

Frame 404: 31 bytes on wire (248 bits), 31 bytes captured (248 bits)
Bluetooth
    [Source: e1:60:1f:8e:2f:d3 (e1:60:1f:8e:2f:d3)]
    [Destination: OneplusT_6e:ef:ab (94:65:2d:6e:ef:ab)]
Bluetooth HCI H4
    [Direction: Rcvd (0x01)]
    HCI Packet Type: ACL Data (0x02)
Bluetooth HCI ACL Packet
Bluetooth L2CAP Protocol
Bluetooth Attribute Protocol
    Opcode: Read By Group Type Response (0x11)
    Length: 20
    Attribute Data, Handle: 0x000c, Group End Handle: 0x0011, UUID128: Unknown
        Handle: 0x000c (Unknown)
        Group End Handle: 0x0011
        UUID: 202020202045434956524553204f4954
    [UUID: GATT Primary Service Declaration (0x2800)]
    [Request in Frame: 401]

0000  02 05 20 1a 00 16 00 04 00 11 14 0c 00 11 00 20   .. ............ 
0010  20 20 20 20 45 43 49 56 52 45 53 20 4f 49 54          ECIVRES OIT

No.     Time           Source                Destination           Protocol Length Info
    405 87.424012      OneplusT_6e:ef:ab (OnePlus 5) e1:60:1f:8e:2f:d3 (E3DT MMLSAOHHEEHI ) ATT      16     Sent Read By Group Type Request, GATT Primary Service Declaration, Handles: 0x0012..0xffff

Frame 405: 16 bytes on wire (128 bits), 16 bytes captured (128 bits)
Bluetooth
    [Source: OneplusT_6e:ef:ab (94:65:2d:6e:ef:ab)]
    [Destination: e1:60:1f:8e:2f:d3 (e1:60:1f:8e:2f:d3)]
Bluetooth HCI H4
    [Direction: Sent (0x00)]
    HCI Packet Type: ACL Data (0x02)
Bluetooth HCI ACL Packet
Bluetooth L2CAP Protocol
Bluetooth Attribute Protocol
    Opcode: Read By Group Type Request (0x10)
    Starting Handle: 0x0012
    Ending Handle: 0xffff
    UUID: GATT Primary Service Declaration (0x2800)
    [Response in Frame: 407]

0000  02 05 00 0b 00 07 00 04 00 10 12 00 ff ff 00 28   ...............(

No.     Time           Source                Destination           Protocol Length Info
    407 87.516747      e1:60:1f:8e:2f:d3 (E3DT MMLSAOHHEEHI ) OneplusT_6e:ef:ab (OnePlus 5) ATT      31     Rcvd Read By Group Type Response, Attribute List Length: 1, Unknown

Frame 407: 31 bytes on wire (248 bits), 31 bytes captured (248 bits)
Bluetooth
    [Source: e1:60:1f:8e:2f:d3 (e1:60:1f:8e:2f:d3)]
    [Destination: OneplusT_6e:ef:ab (94:65:2d:6e:ef:ab)]
Bluetooth HCI H4
    [Direction: Rcvd (0x01)]
    HCI Packet Type: ACL Data (0x02)
Bluetooth HCI ACL Packet
Bluetooth L2CAP Protocol
Bluetooth Attribute Protocol
    Opcode: Read By Group Type Response (0x11)
    Length: 20
    Attribute Data, Handle: 0x0012, Group End Handle: 0xffff, UUID128: Unknown
        Handle: 0x0012 (Unknown)
        Group End Handle: 0xffff
        UUID: 20204543495652455320524f544f4d54
    [UUID: GATT Primary Service Declaration (0x2800)]
    [Request in Frame: 405]

0000  02 05 20 1a 00 16 00 04 00 11 14 12 00 ff ff 20   .. ............ 
0010  20 45 43 49 56 52 45 53 20 52 4f 54 4f 4d 54       ECIVRES ROTOMT

No.     Time           Source                Destination           Protocol Length Info
    408 87.517461      OneplusT_6e:ef:ab (OnePlus 5) e1:60:1f:8e:2f:d3 (E3DT MMLSAOHHEEHI ) ATT      16     Sent Read By Type Request, GATT Include Declaration, Handles: 0x0001..0x0007

Frame 408: 16 bytes on wire (128 bits), 16 bytes captured (128 bits)
Bluetooth
    [Source: OneplusT_6e:ef:ab (94:65:2d:6e:ef:ab)]
    [Destination: e1:60:1f:8e:2f:d3 (e1:60:1f:8e:2f:d3)]
Bluetooth HCI H4
    [Direction: Sent (0x00)]
    HCI Packet Type: ACL Data (0x02)
Bluetooth HCI ACL Packet
Bluetooth L2CAP Protocol
Bluetooth Attribute Protocol
    Opcode: Read By Type Request (0x08)
    Starting Handle: 0x0001
    Ending Handle: 0x0007
    UUID: GATT Include Declaration (0x2802)
    [Response in Frame: 412]

0000  02 05 00 0b 00 07 00 04 00 08 01 00 07 00 02 28   ...............(

No.     Time           Source                Destination           Protocol Length Info
    412 87.654383      e1:60:1f:8e:2f:d3 (E3DT MMLSAOHHEEHI ) OneplusT_6e:ef:ab (OnePlus 5) ATT      14     Rcvd Error Response - Attribute Not Found, Handle: 0x0001 (Generic Access Profile)

Frame 412: 14 bytes on wire (112 bits), 14 bytes captured (112 bits)
Bluetooth
    [Source: e1:60:1f:8e:2f:d3 (e1:60:1f:8e:2f:d3)]
    [Destination: OneplusT_6e:ef:ab (94:65:2d:6e:ef:ab)]
Bluetooth HCI H4
    [Direction: Rcvd (0x01)]
    HCI Packet Type: ACL Data (0x02)
Bluetooth HCI ACL Packet
Bluetooth L2CAP Protocol
Bluetooth Attribute Protocol
    Opcode: Error Response (0x01)
    Request Opcode in Error: Read By Type Request (0x08)
    Handle in Error: 0x0001 (Generic Access Profile)
    Error Code: Attribute Not Found (0x0a)
    [UUID: GATT Include Declaration (0x2802)]
    [Request in Frame: 408]

0000  02 05 20 09 00 05 00 04 00 01 08 01 00 0a         .. ...........

No.     Time           Source                Destination           Protocol Length Info
    413 87.654945      OneplusT_6e:ef:ab (OnePlus 5) e1:60:1f:8e:2f:d3 (E3DT MMLSAOHHEEHI ) ATT      16     Sent Read By Type Request, GATT Characteristic Declaration, Handles: 0x0001..0x0007

Frame 413: 16 bytes on wire (128 bits), 16 bytes captured (128 bits)
Bluetooth
    [Source: OneplusT_6e:ef:ab (94:65:2d:6e:ef:ab)]
    [Destination: e1:60:1f:8e:2f:d3 (e1:60:1f:8e:2f:d3)]
Bluetooth HCI H4
    [Direction: Sent (0x00)]
    HCI Packet Type: ACL Data (0x02)
Bluetooth HCI ACL Packet
Bluetooth L2CAP Protocol
Bluetooth Attribute Protocol
    Opcode: Read By Type Request (0x08)
    Starting Handle: 0x0001
    Ending Handle: 0x0007
    UUID: GATT Characteristic Declaration (0x2803)
    [Response in Frame: 415]

0000  02 05 00 0b 00 07 00 04 00 08 01 00 07 00 03 28   ...............(

No.     Time           Source                Destination           Protocol Length Info
    415 87.669648      e1:60:1f:8e:2f:d3 (E3DT MMLSAOHHEEHI ) OneplusT_6e:ef:ab (OnePlus 5) ATT      32     Rcvd Read By Type Response, Attribute List Length: 3, Device Name, Appearance, Peripheral Preferred Connection Parameters

Frame 415: 32 bytes on wire (256 bits), 32 bytes captured (256 bits)
Bluetooth
    [Source: e1:60:1f:8e:2f:d3 (e1:60:1f:8e:2f:d3)]
    [Destination: OneplusT_6e:ef:ab (94:65:2d:6e:ef:ab)]
Bluetooth HCI H4
    [Direction: Rcvd (0x01)]
    HCI Packet Type: ACL Data (0x02)
Bluetooth HCI ACL Packet
Bluetooth L2CAP Protocol
Bluetooth Attribute Protocol
    Opcode: Read By Type Response (0x09)
    Length: 7
    Attribute Data, Handle: 0x0002, Characteristic Handle: 0x0003, UUID: Device Name
        Handle: 0x0002 (Generic Access Profile: GATT Characteristic Declaration)
        Characteristic Properties: 0x0a, Write, Read
        Characteristic Value Handle: 0x0003 (Generic Access Profile: Device Name)
        UUID: Device Name (0x2a00)
    Attribute Data, Handle: 0x0004, Characteristic Handle: 0x0005, UUID: Appearance
        Handle: 0x0004 (Generic Access Profile: Device Name: GATT Characteristic Declaration)
        Characteristic Properties: 0x02, Read
        Characteristic Value Handle: 0x0005 (Generic Access Profile: Appearance)
        UUID: Appearance (0x2a01)
    Attribute Data, Handle: 0x0006, Characteristic Handle: 0x0007, UUID: Peripheral Preferred Connection Parameters
        Handle: 0x0006 (Generic Access Profile: Appearance: GATT Characteristic Declaration)
        Characteristic Properties: 0x02, Read
        Characteristic Value Handle: 0x0007 (Generic Access Profile: Peripheral Preferred Connection Parameters)
        UUID: Peripheral Preferred Connection Parameters (0x2a04)
    [UUID: GATT Characteristic Declaration (0x2803)]
    [Request in Frame: 413]

0000  02 05 20 1b 00 17 00 04 00 09 07 02 00 0a 03 00   .. .............
0010  00 2a 04 00 02 05 00 01 2a 06 00 02 07 00 04 2a   .*......*......*

No.     Time           Source                Destination           Protocol Length Info
    416 87.670055      OneplusT_6e:ef:ab (OnePlus 5) e1:60:1f:8e:2f:d3 (E3DT MMLSAOHHEEHI ) ATT      16     Sent Read By Type Request, GATT Characteristic Declaration, Handles: 0x0007..0x0007

Frame 416: 16 bytes on wire (128 bits), 16 bytes captured (128 bits)
Bluetooth
    [Source: OneplusT_6e:ef:ab (94:65:2d:6e:ef:ab)]
    [Destination: e1:60:1f:8e:2f:d3 (e1:60:1f:8e:2f:d3)]
Bluetooth HCI H4
    [Direction: Sent (0x00)]
    HCI Packet Type: ACL Data (0x02)
Bluetooth HCI ACL Packet
Bluetooth L2CAP Protocol
Bluetooth Attribute Protocol
    Opcode: Read By Type Request (0x08)
    Starting Handle: 0x0007
    Ending Handle: 0x0007
    UUID: GATT Characteristic Declaration (0x2803)
    [Response in Frame: 418]

0000  02 05 00 0b 00 07 00 04 00 08 07 00 07 00 03 28   ...............(

No.     Time           Source                Destination           Protocol Length Info
    418 87.684767      e1:60:1f:8e:2f:d3 (E3DT MMLSAOHHEEHI ) OneplusT_6e:ef:ab (OnePlus 5) ATT      14     Rcvd Error Response - Attribute Not Found, Handle: 0x0007 (Generic Access Profile: Peripheral Preferred Connection Parameters)

Frame 418: 14 bytes on wire (112 bits), 14 bytes captured (112 bits)
Bluetooth
    [Source: e1:60:1f:8e:2f:d3 (e1:60:1f:8e:2f:d3)]
    [Destination: OneplusT_6e:ef:ab (94:65:2d:6e:ef:ab)]
Bluetooth HCI H4
    [Direction: Rcvd (0x01)]
    HCI Packet Type: ACL Data (0x02)
Bluetooth HCI ACL Packet
Bluetooth L2CAP Protocol
Bluetooth Attribute Protocol
    Opcode: Error Response (0x01)
    Request Opcode in Error: Read By Type Request (0x08)
    Handle in Error: 0x0007 (Generic Access Profile: Peripheral Preferred Connection Parameters)
    Error Code: Attribute Not Found (0x0a)
    [UUID: GATT Characteristic Declaration (0x2803)]
    [Request in Frame: 416]

0000  02 05 20 09 00 05 00 04 00 01 08 07 00 0a         .. ...........

No.     Time           Source                Destination           Protocol Length Info
    419 87.685419      OneplusT_6e:ef:ab (OnePlus 5) e1:60:1f:8e:2f:d3 (E3DT MMLSAOHHEEHI ) ATT      16     Sent Read By Type Request, GATT Include Declaration, Handles: 0x0008..0x000b

Frame 419: 16 bytes on wire (128 bits), 16 bytes captured (128 bits)
Bluetooth
    [Source: OneplusT_6e:ef:ab (94:65:2d:6e:ef:ab)]
    [Destination: e1:60:1f:8e:2f:d3 (e1:60:1f:8e:2f:d3)]
Bluetooth HCI H4
    [Direction: Sent (0x00)]
    HCI Packet Type: ACL Data (0x02)
Bluetooth HCI ACL Packet
Bluetooth L2CAP Protocol
Bluetooth Attribute Protocol
    Opcode: Read By Type Request (0x08)
    Starting Handle: 0x0008
    Ending Handle: 0x000b
    UUID: GATT Include Declaration (0x2802)
    [Response in Frame: 421]

0000  02 05 00 0b 00 07 00 04 00 08 08 00 0b 00 02 28   ...............(

No.     Time           Source                Destination           Protocol Length Info
    421 87.699719      e1:60:1f:8e:2f:d3 (E3DT MMLSAOHHEEHI ) OneplusT_6e:ef:ab (OnePlus 5) ATT      14     Rcvd Error Response - Attribute Not Found, Handle: 0x0008 (Generic Attribute Profile)

Frame 421: 14 bytes on wire (112 bits), 14 bytes captured (112 bits)
Bluetooth
    [Source: e1:60:1f:8e:2f:d3 (e1:60:1f:8e:2f:d3)]
    [Destination: OneplusT_6e:ef:ab (94:65:2d:6e:ef:ab)]
Bluetooth HCI H4
    [Direction: Rcvd (0x01)]
    HCI Packet Type: ACL Data (0x02)
Bluetooth HCI ACL Packet
Bluetooth L2CAP Protocol
Bluetooth Attribute Protocol
    Opcode: Error Response (0x01)
    Request Opcode in Error: Read By Type Request (0x08)
    Handle in Error: 0x0008 (Generic Attribute Profile)
    Error Code: Attribute Not Found (0x0a)
    [UUID: GATT Include Declaration (0x2802)]
    [Request in Frame: 419]

0000  02 05 20 09 00 05 00 04 00 01 08 08 00 0a         .. ...........

No.     Time           Source                Destination           Protocol Length Info
    422 87.700700      OneplusT_6e:ef:ab (OnePlus 5) e1:60:1f:8e:2f:d3 (E3DT MMLSAOHHEEHI ) ATT      16     Sent Read By Type Request, GATT Characteristic Declaration, Handles: 0x0008..0x000b

Frame 422: 16 bytes on wire (128 bits), 16 bytes captured (128 bits)
Bluetooth
    [Source: OneplusT_6e:ef:ab (94:65:2d:6e:ef:ab)]
    [Destination: e1:60:1f:8e:2f:d3 (e1:60:1f:8e:2f:d3)]
Bluetooth HCI H4
    [Direction: Sent (0x00)]
    HCI Packet Type: ACL Data (0x02)
Bluetooth HCI ACL Packet
Bluetooth L2CAP Protocol
Bluetooth Attribute Protocol
    Opcode: Read By Type Request (0x08)
    Starting Handle: 0x0008
    Ending Handle: 0x000b
    UUID: GATT Characteristic Declaration (0x2803)
    [Response in Frame: 424]

0000  02 05 00 0b 00 07 00 04 00 08 08 00 0b 00 03 28   ...............(

No.     Time           Source                Destination           Protocol Length Info
    424 87.714566      e1:60:1f:8e:2f:d3 (E3DT MMLSAOHHEEHI ) OneplusT_6e:ef:ab (OnePlus 5) ATT      18     Rcvd Read By Type Response, Attribute List Length: 1, Service Changed

Frame 424: 18 bytes on wire (144 bits), 18 bytes captured (144 bits)
Bluetooth
    [Source: e1:60:1f:8e:2f:d3 (e1:60:1f:8e:2f:d3)]
    [Destination: OneplusT_6e:ef:ab (94:65:2d:6e:ef:ab)]
Bluetooth HCI H4
    [Direction: Rcvd (0x01)]
    HCI Packet Type: ACL Data (0x02)
Bluetooth HCI ACL Packet
Bluetooth L2CAP Protocol
Bluetooth Attribute Protocol
    Opcode: Read By Type Response (0x09)
    Length: 7
    Attribute Data, Handle: 0x0009, Characteristic Handle: 0x000a, UUID: Service Changed
        Handle: 0x0009 (Generic Attribute Profile: GATT Characteristic Declaration)
        Characteristic Properties: 0x20, Indicate
        Characteristic Value Handle: 0x000a (Generic Attribute Profile: Service Changed)
        UUID: Service Changed (0x2a05)
    [UUID: GATT Characteristic Declaration (0x2803)]
    [Request in Frame: 422]

0000  02 05 20 0d 00 09 00 04 00 09 07 09 00 20 0a 00   .. .......... ..
0010  05 2a                                             .*

No.     Time           Source                Destination           Protocol Length Info
    425 87.714930      OneplusT_6e:ef:ab (OnePlus 5) e1:60:1f:8e:2f:d3 (E3DT MMLSAOHHEEHI ) ATT      16     Sent Read By Type Request, GATT Characteristic Declaration, Handles: 0x000a..0x000b

Frame 425: 16 bytes on wire (128 bits), 16 bytes captured (128 bits)
Bluetooth
    [Source: OneplusT_6e:ef:ab (94:65:2d:6e:ef:ab)]
    [Destination: e1:60:1f:8e:2f:d3 (e1:60:1f:8e:2f:d3)]
Bluetooth HCI H4
    [Direction: Sent (0x00)]
    HCI Packet Type: ACL Data (0x02)
Bluetooth HCI ACL Packet
Bluetooth L2CAP Protocol
Bluetooth Attribute Protocol
    Opcode: Read By Type Request (0x08)
    Starting Handle: 0x000a
    Ending Handle: 0x000b
    UUID: GATT Characteristic Declaration (0x2803)
    [Response in Frame: 427]

0000  02 05 00 0b 00 07 00 04 00 08 0a 00 0b 00 03 28   ...............(

No.     Time           Source                Destination           Protocol Length Info
    427 87.729724      e1:60:1f:8e:2f:d3 (E3DT MMLSAOHHEEHI ) OneplusT_6e:ef:ab (OnePlus 5) ATT      14     Rcvd Error Response - Attribute Not Found, Handle: 0x000a (Generic Attribute Profile: Service Changed)

Frame 427: 14 bytes on wire (112 bits), 14 bytes captured (112 bits)
Bluetooth
    [Source: e1:60:1f:8e:2f:d3 (e1:60:1f:8e:2f:d3)]
    [Destination: OneplusT_6e:ef:ab (94:65:2d:6e:ef:ab)]
Bluetooth HCI H4
    [Direction: Rcvd (0x01)]
    HCI Packet Type: ACL Data (0x02)
Bluetooth HCI ACL Packet
Bluetooth L2CAP Protocol
Bluetooth Attribute Protocol
    Opcode: Error Response (0x01)
    Request Opcode in Error: Read By Type Request (0x08)
    Handle in Error: 0x000a (Generic Attribute Profile: Service Changed)
    Error Code: Attribute Not Found (0x0a)
    [UUID: GATT Characteristic Declaration (0x2803)]
    [Request in Frame: 425]

0000  02 05 20 09 00 05 00 04 00 01 08 0a 00 0a         .. ...........

No.     Time           Source                Destination           Protocol Length Info
    428 87.730486      OneplusT_6e:ef:ab (OnePlus 5) e1:60:1f:8e:2f:d3 (E3DT MMLSAOHHEEHI ) ATT      14     Sent Find Information Request, Handles: 0x000b..0x000b

Frame 428: 14 bytes on wire (112 bits), 14 bytes captured (112 bits)
Bluetooth
    [Source: OneplusT_6e:ef:ab (94:65:2d:6e:ef:ab)]
    [Destination: e1:60:1f:8e:2f:d3 (e1:60:1f:8e:2f:d3)]
Bluetooth HCI H4
    [Direction: Sent (0x00)]
    HCI Packet Type: ACL Data (0x02)
Bluetooth HCI ACL Packet
Bluetooth L2CAP Protocol
Bluetooth Attribute Protocol
    Opcode: Find Information Request (0x04)
    Starting Handle: 0x000b
    Ending Handle: 0x000b
    [Response in Frame: 430]

0000  02 05 00 09 00 05 00 04 00 04 0b 00 0b 00         ..............

No.     Time           Source                Destination           Protocol Length Info
    430 87.749785      e1:60:1f:8e:2f:d3 (E3DT MMLSAOHHEEHI ) OneplusT_6e:ef:ab (OnePlus 5) ATT      15     Rcvd Find Information Response, Handle: 0x000b (Generic Attribute Profile: Service Changed: Client Characteristic Configuration)

Frame 430: 15 bytes on wire (120 bits), 15 bytes captured (120 bits)
Bluetooth
    [Source: e1:60:1f:8e:2f:d3 (e1:60:1f:8e:2f:d3)]
    [Destination: OneplusT_6e:ef:ab (94:65:2d:6e:ef:ab)]
Bluetooth HCI H4
    [Direction: Rcvd (0x01)]
    HCI Packet Type: ACL Data (0x02)
Bluetooth HCI ACL Packet
Bluetooth L2CAP Protocol
Bluetooth Attribute Protocol
    Opcode: Find Information Response (0x05)
    UUID Format: 16-bit UUIDs (0x01)
    Information Data, Handle: 0x000b, UUID: Client Characteristic Configuration
        Handle: 0x000b (Generic Attribute Profile: Service Changed: Client Characteristic Configuration)
        UUID: Client Characteristic Configuration (0x2902)
    [Request in Frame: 428]

0000  02 05 20 0a 00 06 00 04 00 05 01 0b 00 02 29      .. ...........)

No.     Time           Source                Destination           Protocol Length Info
    431 87.750482      OneplusT_6e:ef:ab (OnePlus 5) e1:60:1f:8e:2f:d3 (E3DT MMLSAOHHEEHI ) ATT      16     Sent Read By Type Request, GATT Include Declaration, Handles: 0x000c..0x0011

Frame 431: 16 bytes on wire (128 bits), 16 bytes captured (128 bits)
Bluetooth
    [Source: OneplusT_6e:ef:ab (94:65:2d:6e:ef:ab)]
    [Destination: e1:60:1f:8e:2f:d3 (e1:60:1f:8e:2f:d3)]
Bluetooth HCI H4
    [Direction: Sent (0x00)]
    HCI Packet Type: ACL Data (0x02)
Bluetooth HCI ACL Packet
Bluetooth L2CAP Protocol
Bluetooth Attribute Protocol
    Opcode: Read By Type Request (0x08)
    Starting Handle: 0x000c
    Ending Handle: 0x0011
    UUID: GATT Include Declaration (0x2802)
    [Response in Frame: 433]

0000  02 05 00 0b 00 07 00 04 00 08 0c 00 11 00 02 28   ...............(

No.     Time           Source                Destination           Protocol Length Info
    433 87.779613      e1:60:1f:8e:2f:d3 (E3DT MMLSAOHHEEHI ) OneplusT_6e:ef:ab (OnePlus 5) ATT      14     Rcvd Error Response - Attribute Not Found, Handle: 0x000c (Unknown)

Frame 433: 14 bytes on wire (112 bits), 14 bytes captured (112 bits)
Bluetooth
    [Source: e1:60:1f:8e:2f:d3 (e1:60:1f:8e:2f:d3)]
    [Destination: OneplusT_6e:ef:ab (94:65:2d:6e:ef:ab)]
Bluetooth HCI H4
    [Direction: Rcvd (0x01)]
    HCI Packet Type: ACL Data (0x02)
Bluetooth HCI ACL Packet
Bluetooth L2CAP Protocol
Bluetooth Attribute Protocol
    Opcode: Error Response (0x01)
    Request Opcode in Error: Read By Type Request (0x08)
    Handle in Error: 0x000c (Unknown)
    Error Code: Attribute Not Found (0x0a)
    [UUID: GATT Include Declaration (0x2802)]
    [Request in Frame: 431]

0000  02 05 20 09 00 05 00 04 00 01 08 0c 00 0a         .. ...........

No.     Time           Source                Destination           Protocol Length Info
    434 87.780440      OneplusT_6e:ef:ab (OnePlus 5) e1:60:1f:8e:2f:d3 (E3DT MMLSAOHHEEHI ) ATT      16     Sent Read By Type Request, GATT Characteristic Declaration, Handles: 0x000c..0x0011

Frame 434: 16 bytes on wire (128 bits), 16 bytes captured (128 bits)
Bluetooth
    [Source: OneplusT_6e:ef:ab (94:65:2d:6e:ef:ab)]
    [Destination: e1:60:1f:8e:2f:d3 (e1:60:1f:8e:2f:d3)]
Bluetooth HCI H4
    [Direction: Sent (0x00)]
    HCI Packet Type: ACL Data (0x02)
Bluetooth HCI ACL Packet
Bluetooth L2CAP Protocol
Bluetooth Attribute Protocol
    Opcode: Read By Type Request (0x08)
    Starting Handle: 0x000c
    Ending Handle: 0x0011
    UUID: GATT Characteristic Declaration (0x2803)
    [Response in Frame: 436]

0000  02 05 00 0b 00 07 00 04 00 08 0c 00 11 00 03 28   ...............(

No.     Time           Source                Destination           Protocol Length Info
    436 87.812610      e1:60:1f:8e:2f:d3 (E3DT MMLSAOHHEEHI ) OneplusT_6e:ef:ab (OnePlus 5) ATT      32     Rcvd Read By Type Response, Attribute List Length: 1, Unknown

Frame 436: 32 bytes on wire (256 bits), 32 bytes captured (256 bits)
Bluetooth
    [Source: e1:60:1f:8e:2f:d3 (e1:60:1f:8e:2f:d3)]
    [Destination: OneplusT_6e:ef:ab (94:65:2d:6e:ef:ab)]
Bluetooth HCI H4
    [Direction: Rcvd (0x01)]
    HCI Packet Type: ACL Data (0x02)
Bluetooth HCI ACL Packet
Bluetooth L2CAP Protocol
Bluetooth Attribute Protocol
    Opcode: Read By Type Response (0x09)
    Length: 21
    Attribute Data, Handle: 0x000d, Characteristic Handle: 0x000e, UUID128: Unknown
        Handle: 0x000d (Unknown: GATT Characteristic Declaration)
        Characteristic Properties: 0x04, Write without Response
        Characteristic Value Handle: 0x000e (Unknown: Unknown)
        UUID: 20202020202020205455504e49204f49
    [UUID: GATT Characteristic Declaration (0x2803)]
    [Request in Frame: 434]

0000  02 05 20 1b 00 17 00 04 00 09 15 0d 00 04 0e 00   .. .............
0010  20 20 20 20 20 20 20 20 54 55 50 4e 49 20 4f 49           TUPNI OI

No.     Time           Source                Destination           Protocol Length Info
    437 87.813067      OneplusT_6e:ef:ab (OnePlus 5) e1:60:1f:8e:2f:d3 (E3DT MMLSAOHHEEHI ) ATT      16     Sent Read By Type Request, GATT Characteristic Declaration, Handles: 0x000e..0x0011

Frame 437: 16 bytes on wire (128 bits), 16 bytes captured (128 bits)
Bluetooth
    [Source: OneplusT_6e:ef:ab (94:65:2d:6e:ef:ab)]
    [Destination: e1:60:1f:8e:2f:d3 (e1:60:1f:8e:2f:d3)]
Bluetooth HCI H4
    [Direction: Sent (0x00)]
    HCI Packet Type: ACL Data (0x02)
Bluetooth HCI ACL Packet
Bluetooth L2CAP Protocol
Bluetooth Attribute Protocol
    Opcode: Read By Type Request (0x08)
    Starting Handle: 0x000e
    Ending Handle: 0x0011
    UUID: GATT Characteristic Declaration (0x2803)
    [Response in Frame: 439]

0000  02 05 00 0b 00 07 00 04 00 08 0e 00 11 00 03 28   ...............(

No.     Time           Source                Destination           Protocol Length Info
    439 87.826822      e1:60:1f:8e:2f:d3 (E3DT MMLSAOHHEEHI ) OneplusT_6e:ef:ab (OnePlus 5) ATT      32     Rcvd Read By Type Response, Attribute List Length: 1, Unknown

Frame 439: 32 bytes on wire (256 bits), 32 bytes captured (256 bits)
Bluetooth
    [Source: e1:60:1f:8e:2f:d3 (e1:60:1f:8e:2f:d3)]
    [Destination: OneplusT_6e:ef:ab (94:65:2d:6e:ef:ab)]
Bluetooth HCI H4
    [Direction: Rcvd (0x01)]
    HCI Packet Type: ACL Data (0x02)
Bluetooth HCI ACL Packet
Bluetooth L2CAP Protocol
Bluetooth Attribute Protocol
    Opcode: Read By Type Response (0x09)
    Length: 21
    Attribute Data, Handle: 0x000f, Characteristic Handle: 0x0010, UUID128: Unknown
        Handle: 0x000f (Unknown: Unknown: GATT Characteristic Declaration)
        Characteristic Properties: 0x12, Notify, Read
        Characteristic Value Handle: 0x0010 (Unknown: Unknown)
        UUID: 2020202020202054555054554f204f49
    [UUID: GATT Characteristic Declaration (0x2803)]
    [Request in Frame: 437]

0000  02 05 20 1b 00 17 00 04 00 09 15 0f 00 12 10 00   .. .............
0010  20 20 20 20 20 20 20 54 55 50 54 55 4f 20 4f 49          TUPTUO OI

No.     Time           Source                Destination           Protocol Length Info
    440 87.827048      OneplusT_6e:ef:ab (OnePlus 5) e1:60:1f:8e:2f:d3 (E3DT MMLSAOHHEEHI ) ATT      16     Sent Read By Type Request, GATT Characteristic Declaration, Handles: 0x0010..0x0011

Frame 440: 16 bytes on wire (128 bits), 16 bytes captured (128 bits)
Bluetooth
    [Source: OneplusT_6e:ef:ab (94:65:2d:6e:ef:ab)]
    [Destination: e1:60:1f:8e:2f:d3 (e1:60:1f:8e:2f:d3)]
Bluetooth HCI H4
    [Direction: Sent (0x00)]
    HCI Packet Type: ACL Data (0x02)
Bluetooth HCI ACL Packet
Bluetooth L2CAP Protocol
Bluetooth Attribute Protocol
    Opcode: Read By Type Request (0x08)
    Starting Handle: 0x0010
    Ending Handle: 0x0011
    UUID: GATT Characteristic Declaration (0x2803)
    [Response in Frame: 442]

0000  02 05 00 0b 00 07 00 04 00 08 10 00 11 00 03 28   ...............(

No.     Time           Source                Destination           Protocol Length Info
    442 87.843101      e1:60:1f:8e:2f:d3 (E3DT MMLSAOHHEEHI ) OneplusT_6e:ef:ab (OnePlus 5) ATT      14     Rcvd Error Response - Attribute Not Found, Handle: 0x0010 (Unknown: Unknown)

Frame 442: 14 bytes on wire (112 bits), 14 bytes captured (112 bits)
Bluetooth
    [Source: e1:60:1f:8e:2f:d3 (e1:60:1f:8e:2f:d3)]
    [Destination: OneplusT_6e:ef:ab (94:65:2d:6e:ef:ab)]
Bluetooth HCI H4
    [Direction: Rcvd (0x01)]
    HCI Packet Type: ACL Data (0x02)
Bluetooth HCI ACL Packet
Bluetooth L2CAP Protocol
Bluetooth Attribute Protocol
    Opcode: Error Response (0x01)
    Request Opcode in Error: Read By Type Request (0x08)
    Handle in Error: 0x0010 (Unknown: Unknown)
    Error Code: Attribute Not Found (0x0a)
    [UUID: GATT Characteristic Declaration (0x2803)]
    [Request in Frame: 440]

0000  02 05 20 09 00 05 00 04 00 01 08 10 00 0a         .. ...........

No.     Time           Source                Destination           Protocol Length Info
    443 87.843877      OneplusT_6e:ef:ab (OnePlus 5) e1:60:1f:8e:2f:d3 (E3DT MMLSAOHHEEHI ) ATT      14     Sent Find Information Request, Handles: 0x0011..0x0011

Frame 443: 14 bytes on wire (112 bits), 14 bytes captured (112 bits)
Bluetooth
    [Source: OneplusT_6e:ef:ab (94:65:2d:6e:ef:ab)]
    [Destination: e1:60:1f:8e:2f:d3 (e1:60:1f:8e:2f:d3)]
Bluetooth HCI H4
    [Direction: Sent (0x00)]
    HCI Packet Type: ACL Data (0x02)
Bluetooth HCI ACL Packet
Bluetooth L2CAP Protocol
Bluetooth Attribute Protocol
    Opcode: Find Information Request (0x04)
    Starting Handle: 0x0011
    Ending Handle: 0x0011
    [Response in Frame: 445]

0000  02 05 00 09 00 05 00 04 00 04 11 00 11 00         ..............

No.     Time           Source                Destination           Protocol Length Info
    445 87.859838      e1:60:1f:8e:2f:d3 (E3DT MMLSAOHHEEHI ) OneplusT_6e:ef:ab (OnePlus 5) ATT      15     Rcvd Find Information Response, Handle: 0x0011 (Unknown: Unknown: Client Characteristic Configuration)

Frame 445: 15 bytes on wire (120 bits), 15 bytes captured (120 bits)
Bluetooth
    [Source: e1:60:1f:8e:2f:d3 (e1:60:1f:8e:2f:d3)]
    [Destination: OneplusT_6e:ef:ab (94:65:2d:6e:ef:ab)]
Bluetooth HCI H4
    [Direction: Rcvd (0x01)]
    HCI Packet Type: ACL Data (0x02)
Bluetooth HCI ACL Packet
Bluetooth L2CAP Protocol
Bluetooth Attribute Protocol
    Opcode: Find Information Response (0x05)
    UUID Format: 16-bit UUIDs (0x01)
    Information Data, Handle: 0x0011, UUID: Client Characteristic Configuration
        Handle: 0x0011 (Unknown: Unknown: Client Characteristic Configuration)
        UUID: Client Characteristic Configuration (0x2902)
    [Request in Frame: 443]

0000  02 05 20 0a 00 06 00 04 00 05 01 11 00 02 29      .. ...........)

No.     Time           Source                Destination           Protocol Length Info
    446 87.860351      OneplusT_6e:ef:ab (OnePlus 5) e1:60:1f:8e:2f:d3 (E3DT MMLSAOHHEEHI ) ATT      16     Sent Read By Type Request, GATT Include Declaration, Handles: 0x0012..0xffff

Frame 446: 16 bytes on wire (128 bits), 16 bytes captured (128 bits)
Bluetooth
    [Source: OneplusT_6e:ef:ab (94:65:2d:6e:ef:ab)]
    [Destination: e1:60:1f:8e:2f:d3 (e1:60:1f:8e:2f:d3)]
Bluetooth HCI H4
    [Direction: Sent (0x00)]
    HCI Packet Type: ACL Data (0x02)
Bluetooth HCI ACL Packet
Bluetooth L2CAP Protocol
Bluetooth Attribute Protocol
    Opcode: Read By Type Request (0x08)
    Starting Handle: 0x0012
    Ending Handle: 0xffff
    UUID: GATT Include Declaration (0x2802)
    [Response in Frame: 448]

0000  02 05 00 0b 00 07 00 04 00 08 12 00 ff ff 02 28   ...............(

No.     Time           Source                Destination           Protocol Length Info
    448 87.872312      e1:60:1f:8e:2f:d3 (E3DT MMLSAOHHEEHI ) OneplusT_6e:ef:ab (OnePlus 5) ATT      14     Rcvd Error Response - Attribute Not Found, Handle: 0x0012 (Unknown)

Frame 448: 14 bytes on wire (112 bits), 14 bytes captured (112 bits)
Bluetooth
    [Source: e1:60:1f:8e:2f:d3 (e1:60:1f:8e:2f:d3)]
    [Destination: OneplusT_6e:ef:ab (94:65:2d:6e:ef:ab)]
Bluetooth HCI H4
    [Direction: Rcvd (0x01)]
    HCI Packet Type: ACL Data (0x02)
Bluetooth HCI ACL Packet
Bluetooth L2CAP Protocol
Bluetooth Attribute Protocol
    Opcode: Error Response (0x01)
    Request Opcode in Error: Read By Type Request (0x08)
    Handle in Error: 0x0012 (Unknown)
    Error Code: Attribute Not Found (0x0a)
    [UUID: GATT Include Declaration (0x2802)]
    [Request in Frame: 446]

0000  02 05 20 09 00 05 00 04 00 01 08 12 00 0a         .. ...........

No.     Time           Source                Destination           Protocol Length Info
    449 87.872848      OneplusT_6e:ef:ab (OnePlus 5) e1:60:1f:8e:2f:d3 (E3DT MMLSAOHHEEHI ) ATT      16     Sent Read By Type Request, GATT Characteristic Declaration, Handles: 0x0012..0xffff

Frame 449: 16 bytes on wire (128 bits), 16 bytes captured (128 bits)
Bluetooth
    [Source: OneplusT_6e:ef:ab (94:65:2d:6e:ef:ab)]
    [Destination: e1:60:1f:8e:2f:d3 (e1:60:1f:8e:2f:d3)]
Bluetooth HCI H4
    [Direction: Sent (0x00)]
    HCI Packet Type: ACL Data (0x02)
Bluetooth HCI ACL Packet
Bluetooth L2CAP Protocol
Bluetooth Attribute Protocol
    Opcode: Read By Type Request (0x08)
    Starting Handle: 0x0012
    Ending Handle: 0xffff
    UUID: GATT Characteristic Declaration (0x2803)
    [Response in Frame: 451]

0000  02 05 00 0b 00 07 00 04 00 08 12 00 ff ff 03 28   ...............(

No.     Time           Source                Destination           Protocol Length Info
    451 87.887573      e1:60:1f:8e:2f:d3 (E3DT MMLSAOHHEEHI ) OneplusT_6e:ef:ab (OnePlus 5) ATT      32     Rcvd Read By Type Response, Attribute List Length: 1, Unknown

Frame 451: 32 bytes on wire (256 bits), 32 bytes captured (256 bits)
Bluetooth
    [Source: e1:60:1f:8e:2f:d3 (e1:60:1f:8e:2f:d3)]
    [Destination: OneplusT_6e:ef:ab (94:65:2d:6e:ef:ab)]
Bluetooth HCI H4
    [Direction: Rcvd (0x01)]
    HCI Packet Type: ACL Data (0x02)
Bluetooth HCI ACL Packet
Bluetooth L2CAP Protocol
Bluetooth Attribute Protocol
    Opcode: Read By Type Response (0x09)
    Length: 21
    Attribute Data, Handle: 0x0013, Characteristic Handle: 0x0014, UUID128: Unknown
        Handle: 0x0013 (Unknown: GATT Characteristic Declaration)
        Characteristic Properties: 0x12, Notify, Read
        Characteristic Value Handle: 0x0014 (Unknown: Unknown)
        UUID: 202020202020534f504320524f544f4d
    [UUID: GATT Characteristic Declaration (0x2803)]
    [Request in Frame: 449]

0000  02 05 20 1b 00 17 00 04 00 09 15 13 00 12 14 00   .. .............
0010  20 20 20 20 20 20 53 4f 50 43 20 52 4f 54 4f 4d         SOPC ROTOM

No.     Time           Source                Destination           Protocol Length Info
    452 87.887977      OneplusT_6e:ef:ab (OnePlus 5) e1:60:1f:8e:2f:d3 (E3DT MMLSAOHHEEHI ) ATT      16     Sent Read By Type Request, GATT Characteristic Declaration, Handles: 0x0014..0xffff

Frame 452: 16 bytes on wire (128 bits), 16 bytes captured (128 bits)
Bluetooth
    [Source: OneplusT_6e:ef:ab (94:65:2d:6e:ef:ab)]
    [Destination: e1:60:1f:8e:2f:d3 (e1:60:1f:8e:2f:d3)]
Bluetooth HCI H4
    [Direction: Sent (0x00)]
    HCI Packet Type: ACL Data (0x02)
Bluetooth HCI ACL Packet
Bluetooth L2CAP Protocol
Bluetooth Attribute Protocol
    Opcode: Read By Type Request (0x08)
    Starting Handle: 0x0014
    Ending Handle: 0xffff
    UUID: GATT Characteristic Declaration (0x2803)
    [Response in Frame: 454]

0000  02 05 00 0b 00 07 00 04 00 08 14 00 ff ff 03 28   ...............(

No.     Time           Source                Destination           Protocol Length Info
    454 87.902212      e1:60:1f:8e:2f:d3 (E3DT MMLSAOHHEEHI ) OneplusT_6e:ef:ab (OnePlus 5) ATT      32     Rcvd Read By Type Response, Attribute List Length: 1, Unknown

Frame 454: 32 bytes on wire (256 bits), 32 bytes captured (256 bits)
Bluetooth
    [Source: e1:60:1f:8e:2f:d3 (e1:60:1f:8e:2f:d3)]
    [Destination: OneplusT_6e:ef:ab (94:65:2d:6e:ef:ab)]
Bluetooth HCI H4
    [Direction: Rcvd (0x01)]
    HCI Packet Type: ACL Data (0x02)
Bluetooth HCI ACL Packet
Bluetooth L2CAP Protocol
Bluetooth Attribute Protocol
    Opcode: Read By Type Response (0x09)
    Length: 21
    Attribute Data, Handle: 0x0016, Characteristic Handle: 0x0017, UUID128: Unknown
        Handle: 0x0016 (Unknown: Unknown: GATT Characteristic Declaration)
        Characteristic Properties: 0x06, Write without Response, Read
        Characteristic Value Handle: 0x0017 (Unknown: Unknown)
        UUID: 202020202020534f504920524f544f4d
    [UUID: GATT Characteristic Declaration (0x2803)]
    [Request in Frame: 452]

0000  02 05 20 1b 00 17 00 04 00 09 15 16 00 06 17 00   .. .............
0010  20 20 20 20 20 20 53 4f 50 49 20 52 4f 54 4f 4d         SOPI ROTOM

No.     Time           Source                Destination           Protocol Length Info
    455 87.902832      OneplusT_6e:ef:ab (OnePlus 5) e1:60:1f:8e:2f:d3 (E3DT MMLSAOHHEEHI ) ATT      16     Sent Read By Type Request, GATT Characteristic Declaration, Handles: 0x0017..0xffff

Frame 455: 16 bytes on wire (128 bits), 16 bytes captured (128 bits)
Bluetooth
    [Source: OneplusT_6e:ef:ab (94:65:2d:6e:ef:ab)]
    [Destination: e1:60:1f:8e:2f:d3 (e1:60:1f:8e:2f:d3)]
Bluetooth HCI H4
    [Direction: Sent (0x00)]
    HCI Packet Type: ACL Data (0x02)
Bluetooth HCI ACL Packet
Bluetooth L2CAP Protocol
Bluetooth Attribute Protocol
    Opcode: Read By Type Request (0x08)
    Starting Handle: 0x0017
    Ending Handle: 0xffff
    UUID: GATT Characteristic Declaration (0x2803)
    [Response in Frame: 457]

0000  02 05 00 0b 00 07 00 04 00 08 17 00 ff ff 03 28   ...............(

No.     Time           Source                Destination           Protocol Length Info
    457 87.916983      e1:60:1f:8e:2f:d3 (E3DT MMLSAOHHEEHI ) OneplusT_6e:ef:ab (OnePlus 5) ATT      32     Rcvd Read By Type Response, Attribute List Length: 1, Unknown

Frame 457: 32 bytes on wire (256 bits), 32 bytes captured (256 bits)
Bluetooth
    [Source: e1:60:1f:8e:2f:d3 (e1:60:1f:8e:2f:d3)]
    [Destination: OneplusT_6e:ef:ab (94:65:2d:6e:ef:ab)]
Bluetooth HCI H4
    [Direction: Rcvd (0x01)]
    HCI Packet Type: ACL Data (0x02)
Bluetooth HCI ACL Packet
Bluetooth L2CAP Protocol
Bluetooth Attribute Protocol
    Opcode: Read By Type Response (0x09)
    Length: 21
    Attribute Data, Handle: 0x0018, Characteristic Handle: 0x0019, UUID128: Unknown
        Handle: 0x0018 (Unknown: Unknown: GATT Characteristic Declaration)
        Characteristic Properties: 0x12, Notify, Read
        Characteristic Value Handle: 0x0019 (Unknown: Unknown)
        UUID: 202020202045444f4d4d20524f544f4d
    [UUID: GATT Characteristic Declaration (0x2803)]
    [Request in Frame: 455]

0000  02 05 20 1b 00 17 00 04 00 09 15 18 00 12 19 00   .. .............
0010  20 20 20 20 20 45 44 4f 4d 4d 20 52 4f 54 4f 4d        EDOMM ROTOM

No.     Time           Source                Destination           Protocol Length Info
    458 87.917274      OneplusT_6e:ef:ab (OnePlus 5) e1:60:1f:8e:2f:d3 (E3DT MMLSAOHHEEHI ) ATT      16     Sent Read By Type Request, GATT Characteristic Declaration, Handles: 0x0019..0xffff

Frame 458: 16 bytes on wire (128 bits), 16 bytes captured (128 bits)
Bluetooth
    [Source: OneplusT_6e:ef:ab (94:65:2d:6e:ef:ab)]
    [Destination: e1:60:1f:8e:2f:d3 (e1:60:1f:8e:2f:d3)]
Bluetooth HCI H4
    [Direction: Sent (0x00)]
    HCI Packet Type: ACL Data (0x02)
Bluetooth HCI ACL Packet
Bluetooth L2CAP Protocol
Bluetooth Attribute Protocol
    Opcode: Read By Type Request (0x08)
    Starting Handle: 0x0019
    Ending Handle: 0xffff
    UUID: GATT Characteristic Declaration (0x2803)
    [Response in Frame: 460]

0000  02 05 00 0b 00 07 00 04 00 08 19 00 ff ff 03 28   ...............(

No.     Time           Source                Destination           Protocol Length Info
    460 87.932181      e1:60:1f:8e:2f:d3 (E3DT MMLSAOHHEEHI ) OneplusT_6e:ef:ab (OnePlus 5) ATT      32     Rcvd Read By Type Response, Attribute List Length: 1, Unknown

Frame 460: 32 bytes on wire (256 bits), 32 bytes captured (256 bits)
Bluetooth
    [Source: e1:60:1f:8e:2f:d3 (e1:60:1f:8e:2f:d3)]
    [Destination: OneplusT_6e:ef:ab (94:65:2d:6e:ef:ab)]
Bluetooth HCI H4
    [Direction: Rcvd (0x01)]
    HCI Packet Type: ACL Data (0x02)
Bluetooth HCI ACL Packet
Bluetooth L2CAP Protocol
Bluetooth Attribute Protocol
    Opcode: Read By Type Response (0x09)
    Length: 21
    Attribute Data, Handle: 0x001b, Characteristic Handle: 0x001c, UUID128: Unknown
        Handle: 0x001b (Unknown: Unknown: GATT Characteristic Declaration)
        Characteristic Properties: 0x06, Write without Response, Read
        Characteristic Value Handle: 0x001c (Unknown: Unknown)
        UUID: 202020202045444f4d5320524f544f4d
    [UUID: GATT Characteristic Declaration (0x2803)]
    [Request in Frame: 458]

0000  02 05 20 1b 00 17 00 04 00 09 15 1b 00 06 1c 00   .. .............
0010  20 20 20 20 20 45 44 4f 4d 53 20 52 4f 54 4f 4d        EDOMS ROTOM

No.     Time           Source                Destination           Protocol Length Info
    461 87.932616      OneplusT_6e:ef:ab (OnePlus 5) e1:60:1f:8e:2f:d3 (E3DT MMLSAOHHEEHI ) ATT      16     Sent Read By Type Request, GATT Characteristic Declaration, Handles: 0x001c..0xffff

Frame 461: 16 bytes on wire (128 bits), 16 bytes captured (128 bits)
Bluetooth
    [Source: OneplusT_6e:ef:ab (94:65:2d:6e:ef:ab)]
    [Destination: e1:60:1f:8e:2f:d3 (e1:60:1f:8e:2f:d3)]
Bluetooth HCI H4
    [Direction: Sent (0x00)]
    HCI Packet Type: ACL Data (0x02)
Bluetooth HCI ACL Packet
Bluetooth L2CAP Protocol
Bluetooth Attribute Protocol
    Opcode: Read By Type Request (0x08)
    Starting Handle: 0x001c
    Ending Handle: 0xffff
    UUID: GATT Characteristic Declaration (0x2803)
    [Response in Frame: 463]

0000  02 05 00 0b 00 07 00 04 00 08 1c 00 ff ff 03 28   ...............(

No.     Time           Source                Destination           Protocol Length Info
    463 87.947374      e1:60:1f:8e:2f:d3 (E3DT MMLSAOHHEEHI ) OneplusT_6e:ef:ab (OnePlus 5) ATT      32     Rcvd Read By Type Response, Attribute List Length: 1, Unknown

Frame 463: 32 bytes on wire (256 bits), 32 bytes captured (256 bits)
Bluetooth
    [Source: e1:60:1f:8e:2f:d3 (e1:60:1f:8e:2f:d3)]
    [Destination: OneplusT_6e:ef:ab (94:65:2d:6e:ef:ab)]
Bluetooth HCI H4
    [Direction: Rcvd (0x01)]
    HCI Packet Type: ACL Data (0x02)
Bluetooth HCI ACL Packet
Bluetooth L2CAP Protocol
Bluetooth Attribute Protocol
    Opcode: Read By Type Response (0x09)
    Length: 21
    Attribute Data, Handle: 0x001d, Characteristic Handle: 0x001e, UUID128: Unknown
        Handle: 0x001d (Unknown: Unknown: GATT Characteristic Declaration)
        Characteristic Properties: 0x06, Write without Response, Read
        Characteristic Value Handle: 0x001e (Unknown: Unknown)
        UUID: 2020202020444545505320524f544f4d
    [UUID: GATT Characteristic Declaration (0x2803)]
    [Request in Frame: 461]

0000  02 05 20 1b 00 17 00 04 00 09 15 1d 00 06 1e 00   .. .............
0010  20 20 20 20 20 44 45 45 50 53 20 52 4f 54 4f 4d        DEEPS ROTOM

No.     Time           Source                Destination           Protocol Length Info
    464 87.947886      OneplusT_6e:ef:ab (OnePlus 5) e1:60:1f:8e:2f:d3 (E3DT MMLSAOHHEEHI ) ATT      16     Sent Read By Type Request, GATT Characteristic Declaration, Handles: 0x001e..0xffff

Frame 464: 16 bytes on wire (128 bits), 16 bytes captured (128 bits)
Bluetooth
    [Source: OneplusT_6e:ef:ab (94:65:2d:6e:ef:ab)]
    [Destination: e1:60:1f:8e:2f:d3 (e1:60:1f:8e:2f:d3)]
Bluetooth HCI H4
    [Direction: Sent (0x00)]
    HCI Packet Type: ACL Data (0x02)
Bluetooth HCI ACL Packet
Bluetooth L2CAP Protocol
Bluetooth Attribute Protocol
    Opcode: Read By Type Request (0x08)
    Starting Handle: 0x001e
    Ending Handle: 0xffff
    UUID: GATT Characteristic Declaration (0x2803)
    [Response in Frame: 466]

0000  02 05 00 0b 00 07 00 04 00 08 1e 00 ff ff 03 28   ...............(

No.     Time           Source                Destination           Protocol Length Info
    466 87.984519      e1:60:1f:8e:2f:d3 (E3DT MMLSAOHHEEHI ) OneplusT_6e:ef:ab (OnePlus 5) ATT      32     Rcvd Read By Type Response, Attribute List Length: 1, Unknown

Frame 466: 32 bytes on wire (256 bits), 32 bytes captured (256 bits)
Bluetooth
    [Source: e1:60:1f:8e:2f:d3 (e1:60:1f:8e:2f:d3)]
    [Destination: OneplusT_6e:ef:ab (94:65:2d:6e:ef:ab)]
Bluetooth HCI H4
    [Direction: Rcvd (0x01)]
    HCI Packet Type: ACL Data (0x02)
Bluetooth HCI ACL Packet
Bluetooth L2CAP Protocol
Bluetooth Attribute Protocol
    Opcode: Read By Type Response (0x09)
    Length: 21
    Attribute Data, Handle: 0x001f, Characteristic Handle: 0x0020, UUID128: Unknown
        Handle: 0x001f (Unknown: Unknown: GATT Characteristic Declaration)
        Characteristic Properties: 0x06, Write without Response, Read
        Characteristic Value Handle: 0x0020 (Unknown: Unknown)
        UUID: 20202020204c4543434120524f544f4d
    [UUID: GATT Characteristic Declaration (0x2803)]
    [Request in Frame: 464]

0000  02 05 20 1b 00 17 00 04 00 09 15 1f 00 06 20 00   .. ........... .
0010  20 20 20 20 20 4c 45 43 43 41 20 52 4f 54 4f 4d        LECCA ROTOM

No.     Time           Source                Destination           Protocol Length Info
    467 87.984841      OneplusT_6e:ef:ab (OnePlus 5) e1:60:1f:8e:2f:d3 (E3DT MMLSAOHHEEHI ) ATT      16     Sent Read By Type Request, GATT Characteristic Declaration, Handles: 0x0020..0xffff

Frame 467: 16 bytes on wire (128 bits), 16 bytes captured (128 bits)
Bluetooth
    [Source: OneplusT_6e:ef:ab (94:65:2d:6e:ef:ab)]
    [Destination: e1:60:1f:8e:2f:d3 (e1:60:1f:8e:2f:d3)]
Bluetooth HCI H4
    [Direction: Sent (0x00)]
    HCI Packet Type: ACL Data (0x02)
Bluetooth HCI ACL Packet
Bluetooth L2CAP Protocol
Bluetooth Attribute Protocol
    Opcode: Read By Type Request (0x08)
    Starting Handle: 0x0020
    Ending Handle: 0xffff
    UUID: GATT Characteristic Declaration (0x2803)
    [Response in Frame: 469]

0000  02 05 00 0b 00 07 00 04 00 08 20 00 ff ff 03 28   .......... ....(

No.     Time           Source                Destination           Protocol Length Info
    469 87.999362      e1:60:1f:8e:2f:d3 (E3DT MMLSAOHHEEHI ) OneplusT_6e:ef:ab (OnePlus 5) ATT      14     Rcvd Error Response - Attribute Not Found, Handle: 0x0020 (Unknown: Unknown)

Frame 469: 14 bytes on wire (112 bits), 14 bytes captured (112 bits)
Bluetooth
    [Source: e1:60:1f:8e:2f:d3 (e1:60:1f:8e:2f:d3)]
    [Destination: OneplusT_6e:ef:ab (94:65:2d:6e:ef:ab)]
Bluetooth HCI H4
    [Direction: Rcvd (0x01)]
    HCI Packet Type: ACL Data (0x02)
Bluetooth HCI ACL Packet
Bluetooth L2CAP Protocol
Bluetooth Attribute Protocol
    Opcode: Error Response (0x01)
    Request Opcode in Error: Read By Type Request (0x08)
    Handle in Error: 0x0020 (Unknown: Unknown)
    Error Code: Attribute Not Found (0x0a)
    [UUID: GATT Characteristic Declaration (0x2803)]
    [Request in Frame: 467]

0000  02 05 20 09 00 05 00 04 00 01 08 20 00 0a         .. ........ ..

No.     Time           Source                Destination           Protocol Length Info
    471 87.999875      OneplusT_6e:ef:ab (OnePlus 5) e1:60:1f:8e:2f:d3 (E3DT MMLSAOHHEEHI ) ATT      14     Sent Find Information Request, Handles: 0x0015..0x0015

Frame 471: 14 bytes on wire (112 bits), 14 bytes captured (112 bits)
Bluetooth
    [Source: OneplusT_6e:ef:ab (94:65:2d:6e:ef:ab)]
    [Destination: e1:60:1f:8e:2f:d3 (e1:60:1f:8e:2f:d3)]
Bluetooth HCI H4
    [Direction: Sent (0x00)]
    HCI Packet Type: ACL Data (0x02)
Bluetooth HCI ACL Packet
Bluetooth L2CAP Protocol
Bluetooth Attribute Protocol
    Opcode: Find Information Request (0x04)
    Starting Handle: 0x0015
    Ending Handle: 0x0015
    [Response in Frame: 473]

0000  02 05 00 09 00 05 00 04 00 04 15 00 15 00         ..............

No.     Time           Source                Destination           Protocol Length Info
    473 88.014532      e1:60:1f:8e:2f:d3 (E3DT MMLSAOHHEEHI ) OneplusT_6e:ef:ab (OnePlus 5) ATT      15     Rcvd Find Information Response, Handle: 0x0015 (Unknown: Unknown: Client Characteristic Configuration)

Frame 473: 15 bytes on wire (120 bits), 15 bytes captured (120 bits)
Bluetooth
    [Source: e1:60:1f:8e:2f:d3 (e1:60:1f:8e:2f:d3)]
    [Destination: OneplusT_6e:ef:ab (94:65:2d:6e:ef:ab)]
Bluetooth HCI H4
    [Direction: Rcvd (0x01)]
    HCI Packet Type: ACL Data (0x02)
Bluetooth HCI ACL Packet
Bluetooth L2CAP Protocol
Bluetooth Attribute Protocol
    Opcode: Find Information Response (0x05)
    UUID Format: 16-bit UUIDs (0x01)
    Information Data, Handle: 0x0015, UUID: Client Characteristic Configuration
        Handle: 0x0015 (Unknown: Unknown: Client Characteristic Configuration)
        UUID: Client Characteristic Configuration (0x2902)
    [Request in Frame: 471]

0000  02 05 20 0a 00 06 00 04 00 05 01 15 00 02 29      .. ...........)

No.     Time           Source                Destination           Protocol Length Info
    474 88.015080      OneplusT_6e:ef:ab (OnePlus 5) e1:60:1f:8e:2f:d3 (E3DT MMLSAOHHEEHI ) ATT      14     Sent Find Information Request, Handles: 0x001a..0x001a

Frame 474: 14 bytes on wire (112 bits), 14 bytes captured (112 bits)
Bluetooth
    [Source: OneplusT_6e:ef:ab (94:65:2d:6e:ef:ab)]
    [Destination: e1:60:1f:8e:2f:d3 (e1:60:1f:8e:2f:d3)]
Bluetooth HCI H4
    [Direction: Sent (0x00)]
    HCI Packet Type: ACL Data (0x02)
Bluetooth HCI ACL Packet
Bluetooth L2CAP Protocol
Bluetooth Attribute Protocol
    Opcode: Find Information Request (0x04)
    Starting Handle: 0x001a
    Ending Handle: 0x001a
    [Response in Frame: 476]

0000  02 05 00 09 00 05 00 04 00 04 1a 00 1a 00         ..............

No.     Time           Source                Destination           Protocol Length Info
    476 88.029616      e1:60:1f:8e:2f:d3 (E3DT MMLSAOHHEEHI ) OneplusT_6e:ef:ab (OnePlus 5) ATT      15     Rcvd Find Information Response, Handle: 0x001a (Unknown: Unknown: Client Characteristic Configuration)

Frame 476: 15 bytes on wire (120 bits), 15 bytes captured (120 bits)
Bluetooth
    [Source: e1:60:1f:8e:2f:d3 (e1:60:1f:8e:2f:d3)]
    [Destination: OneplusT_6e:ef:ab (94:65:2d:6e:ef:ab)]
Bluetooth HCI H4
    [Direction: Rcvd (0x01)]
    HCI Packet Type: ACL Data (0x02)
Bluetooth HCI ACL Packet
Bluetooth L2CAP Protocol
Bluetooth Attribute Protocol
    Opcode: Find Information Response (0x05)
    UUID Format: 16-bit UUIDs (0x01)
    Information Data, Handle: 0x001a, UUID: Client Characteristic Configuration
        Handle: 0x001a (Unknown: Unknown: Client Characteristic Configuration)
        UUID: Client Characteristic Configuration (0x2902)
    [Request in Frame: 474]

0000  02 05 20 0a 00 06 00 04 00 05 01 1a 00 02 29      .. ...........)

No.     Time           Source                Destination           Protocol Length Info
    477 88.030359      OneplusT_6e:ef:ab (OnePlus 5) e1:60:1f:8e:2f:d3 (E3DT MMLSAOHHEEHI ) ATT      14     Sent Find Information Request, Handles: 0x0021..0xffff

Frame 477: 14 bytes on wire (112 bits), 14 bytes captured (112 bits)
Bluetooth
    [Source: OneplusT_6e:ef:ab (94:65:2d:6e:ef:ab)]
    [Destination: e1:60:1f:8e:2f:d3 (e1:60:1f:8e:2f:d3)]
Bluetooth HCI H4
    [Direction: Sent (0x00)]
    HCI Packet Type: ACL Data (0x02)
Bluetooth HCI ACL Packet
Bluetooth L2CAP Protocol
Bluetooth Attribute Protocol
    Opcode: Find Information Request (0x04)
    Starting Handle: 0x0021
    Ending Handle: 0xffff
    [Response in Frame: 479]

0000  02 05 00 09 00 05 00 04 00 04 21 00 ff ff         ..........!...

No.     Time           Source                Destination           Protocol Length Info
    479 88.045719      e1:60:1f:8e:2f:d3 (E3DT MMLSAOHHEEHI ) OneplusT_6e:ef:ab (OnePlus 5) ATT      14     Rcvd Error Response - Attribute Not Found, Handle: 0x0021 (Unknown: Unknown: Unknown)

Frame 479: 14 bytes on wire (112 bits), 14 bytes captured (112 bits)
Bluetooth
    [Source: e1:60:1f:8e:2f:d3 (e1:60:1f:8e:2f:d3)]
    [Destination: OneplusT_6e:ef:ab (94:65:2d:6e:ef:ab)]
Bluetooth HCI H4
    [Direction: Rcvd (0x01)]
    HCI Packet Type: ACL Data (0x02)
Bluetooth HCI ACL Packet
Bluetooth L2CAP Protocol
Bluetooth Attribute Protocol
    Opcode: Error Response (0x01)
    Request Opcode in Error: Find Information Request (0x04)
    Handle in Error: 0x0021 (Unknown: Unknown: Unknown)
    Error Code: Attribute Not Found (0x0a)
    [Request in Frame: 477]

0000  02 05 20 09 00 05 00 04 00 01 04 21 00 0a         .. ........!..

No.     Time           Source                Destination           Protocol Length Info
    482 88.103526      OneplusT_6e:ef:ab (OnePlus 5) e1:60:1f:8e:2f:d3 (E3DT MMLSAOHHEEHI ) ATT      12     Sent Read Request, Handle: 0x0010 (Unknown: Unknown)

Frame 482: 12 bytes on wire (96 bits), 12 bytes captured (96 bits)
Bluetooth
    [Source: OneplusT_6e:ef:ab (94:65:2d:6e:ef:ab)]
    [Destination: e1:60:1f:8e:2f:d3 (e1:60:1f:8e:2f:d3)]
Bluetooth HCI H4
    [Direction: Sent (0x00)]
    HCI Packet Type: ACL Data (0x02)
Bluetooth HCI ACL Packet
Bluetooth L2CAP Protocol
Bluetooth Attribute Protocol
    Opcode: Read Request (0x0a)
    Handle: 0x0010 (Unknown: Unknown)
    [Response in Frame: 484]

0000  02 05 00 07 00 03 00 04 00 0a 10 00               ............

No.     Time           Source                Destination           Protocol Length Info
    484 88.119314      e1:60:1f:8e:2f:d3 (E3DT MMLSAOHHEEHI ) OneplusT_6e:ef:ab (OnePlus 5) ATT      14     Rcvd Read Response, Handle: 0x0010 (Unknown: Unknown)

Frame 484: 14 bytes on wire (112 bits), 14 bytes captured (112 bits)
Bluetooth
    [Source: e1:60:1f:8e:2f:d3 (e1:60:1f:8e:2f:d3)]
    [Destination: OneplusT_6e:ef:ab (94:65:2d:6e:ef:ab)]
Bluetooth HCI H4
    [Direction: Rcvd (0x01)]
    HCI Packet Type: ACL Data (0x02)
Bluetooth HCI ACL Packet
Bluetooth L2CAP Protocol
Bluetooth Attribute Protocol
    Opcode: Read Response (0x0b)
    [Handle: 0x0010 (Unknown: Unknown)]
    Value: 00000000
    [Request in Frame: 482]

0000  02 05 20 09 00 05 00 04 00 0b 00 00 00 00         .. ...........

No.     Time           Source                Destination           Protocol Length Info
    485 88.121862      OneplusT_6e:ef:ab (OnePlus 5) e1:60:1f:8e:2f:d3 (E3DT MMLSAOHHEEHI ) ATT      12     Sent Read Request, Handle: 0x0014 (Unknown: Unknown)

Frame 485: 12 bytes on wire (96 bits), 12 bytes captured (96 bits)
Bluetooth
    [Source: OneplusT_6e:ef:ab (94:65:2d:6e:ef:ab)]
    [Destination: e1:60:1f:8e:2f:d3 (e1:60:1f:8e:2f:d3)]
Bluetooth HCI H4
    [Direction: Sent (0x00)]
    HCI Packet Type: ACL Data (0x02)
Bluetooth HCI ACL Packet
Bluetooth L2CAP Protocol
Bluetooth Attribute Protocol
    Opcode: Read Request (0x0a)
    Handle: 0x0014 (Unknown: Unknown)
    [Response in Frame: 488]

0000  02 05 00 07 00 03 00 04 00 0a 14 00               ............

No.     Time           Source                Destination           Protocol Length Info
    488 88.225244      e1:60:1f:8e:2f:d3 (E3DT MMLSAOHHEEHI ) OneplusT_6e:ef:ab (OnePlus 5) ATT      14     Rcvd Read Response, Handle: 0x0014 (Unknown: Unknown)

Frame 488: 14 bytes on wire (112 bits), 14 bytes captured (112 bits)
Bluetooth
    [Source: e1:60:1f:8e:2f:d3 (e1:60:1f:8e:2f:d3)]
    [Destination: OneplusT_6e:ef:ab (94:65:2d:6e:ef:ab)]
Bluetooth HCI H4
    [Direction: Rcvd (0x01)]
    HCI Packet Type: ACL Data (0x02)
Bluetooth HCI ACL Packet
Bluetooth L2CAP Protocol
Bluetooth Attribute Protocol
    Opcode: Read Response (0x0b)
    [Handle: 0x0014 (Unknown: Unknown)]
    Value: 00000000
    [Request in Frame: 485]

0000  02 05 20 09 00 05 00 04 00 0b 00 00 00 00         .. ...........

No.     Time           Source                Destination           Protocol Length Info
    490 88.229488      OneplusT_6e:ef:ab (OnePlus 5) e1:60:1f:8e:2f:d3 (E3DT MMLSAOHHEEHI ) ATT      12     Sent Read Request, Handle: 0x001c (Unknown: Unknown)

Frame 490: 12 bytes on wire (96 bits), 12 bytes captured (96 bits)
Bluetooth
    [Source: OneplusT_6e:ef:ab (94:65:2d:6e:ef:ab)]
    [Destination: e1:60:1f:8e:2f:d3 (e1:60:1f:8e:2f:d3)]
Bluetooth HCI H4
    [Direction: Sent (0x00)]
    HCI Packet Type: ACL Data (0x02)
Bluetooth HCI ACL Packet
Bluetooth L2CAP Protocol
Bluetooth Attribute Protocol
    Opcode: Read Request (0x0a)
    Handle: 0x001c (Unknown: Unknown)
    [Response in Frame: 492]

0000  02 05 00 07 00 03 00 04 00 0a 1c 00               ............

No.     Time           Source                Destination           Protocol Length Info
    492 88.320231      e1:60:1f:8e:2f:d3 (E3DT MMLSAOHHEEHI ) OneplusT_6e:ef:ab (OnePlus 5) ATT      11     Rcvd Read Response, Handle: 0x001c (Unknown: Unknown)

Frame 492: 11 bytes on wire (88 bits), 11 bytes captured (88 bits)
Bluetooth
    [Source: e1:60:1f:8e:2f:d3 (e1:60:1f:8e:2f:d3)]
    [Destination: OneplusT_6e:ef:ab (94:65:2d:6e:ef:ab)]
Bluetooth HCI H4
    [Direction: Rcvd (0x01)]
    HCI Packet Type: ACL Data (0x02)
Bluetooth HCI ACL Packet
Bluetooth L2CAP Protocol
Bluetooth Attribute Protocol
    Opcode: Read Response (0x0b)
    [Handle: 0x001c (Unknown: Unknown)]
    Value: 01
    [Request in Frame: 490]

0000  02 05 20 06 00 02 00 04 00 0b 01                  .. ........

No.     Time           Source                Destination           Protocol Length Info
    493 88.325372      OneplusT_6e:ef:ab (OnePlus 5) e1:60:1f:8e:2f:d3 (E3DT MMLSAOHHEEHI ) ATT      12     Sent Read Request, Handle: 0x0019 (Unknown: Unknown)

Frame 493: 12 bytes on wire (96 bits), 12 bytes captured (96 bits)
Bluetooth
    [Source: OneplusT_6e:ef:ab (94:65:2d:6e:ef:ab)]
    [Destination: e1:60:1f:8e:2f:d3 (e1:60:1f:8e:2f:d3)]
Bluetooth HCI H4
    [Direction: Sent (0x00)]
    HCI Packet Type: ACL Data (0x02)
Bluetooth HCI ACL Packet
Bluetooth L2CAP Protocol
Bluetooth Attribute Protocol
    Opcode: Read Request (0x0a)
    Handle: 0x0019 (Unknown: Unknown)
    [Response in Frame: 495]

0000  02 05 00 07 00 03 00 04 00 0a 19 00               ............

No.     Time           Source                Destination           Protocol Length Info
    495 88.407402      e1:60:1f:8e:2f:d3 (E3DT MMLSAOHHEEHI ) OneplusT_6e:ef:ab (OnePlus 5) ATT      11     Rcvd Read Response, Handle: 0x0019 (Unknown: Unknown)

Frame 495: 11 bytes on wire (88 bits), 11 bytes captured (88 bits)
Bluetooth
    [Source: e1:60:1f:8e:2f:d3 (e1:60:1f:8e:2f:d3)]
    [Destination: OneplusT_6e:ef:ab (94:65:2d:6e:ef:ab)]
Bluetooth HCI H4
    [Direction: Rcvd (0x01)]
    HCI Packet Type: ACL Data (0x02)
Bluetooth HCI ACL Packet
Bluetooth L2CAP Protocol
Bluetooth Attribute Protocol
    Opcode: Read Response (0x0b)
    [Handle: 0x0019 (Unknown: Unknown)]
    Value: 01
    [Request in Frame: 493]

0000  02 05 20 06 00 02 00 04 00 0b 01                  .. ........

No.     Time           Source                Destination           Protocol Length Info
    496 88.424536      OneplusT_6e:ef:ab (OnePlus 5) e1:60:1f:8e:2f:d3 (E3DT MMLSAOHHEEHI ) ATT      12     Sent Read Request, Handle: 0x001e (Unknown: Unknown)

Frame 496: 12 bytes on wire (96 bits), 12 bytes captured (96 bits)
Bluetooth
    [Source: OneplusT_6e:ef:ab (94:65:2d:6e:ef:ab)]
    [Destination: e1:60:1f:8e:2f:d3 (e1:60:1f:8e:2f:d3)]
Bluetooth HCI H4
    [Direction: Sent (0x00)]
    HCI Packet Type: ACL Data (0x02)
Bluetooth HCI ACL Packet
Bluetooth L2CAP Protocol
Bluetooth Attribute Protocol
    Opcode: Read Request (0x0a)
    Handle: 0x001e (Unknown: Unknown)
    [Response in Frame: 498]

0000  02 05 00 07 00 03 00 04 00 0a 1e 00               ............

No.     Time           Source                Destination           Protocol Length Info
    498 88.494714      e1:60:1f:8e:2f:d3 (E3DT MMLSAOHHEEHI ) OneplusT_6e:ef:ab (OnePlus 5) ATT      11     Rcvd Read Response, Handle: 0x001e (Unknown: Unknown)

Frame 498: 11 bytes on wire (88 bits), 11 bytes captured (88 bits)
Bluetooth
    [Source: e1:60:1f:8e:2f:d3 (e1:60:1f:8e:2f:d3)]
    [Destination: OneplusT_6e:ef:ab (94:65:2d:6e:ef:ab)]
Bluetooth HCI H4
    [Direction: Rcvd (0x01)]
    HCI Packet Type: ACL Data (0x02)
Bluetooth HCI ACL Packet
Bluetooth L2CAP Protocol
Bluetooth Attribute Protocol
    Opcode: Read Response (0x0b)
    [Handle: 0x001e (Unknown: Unknown)]
    Value: 00
    [Request in Frame: 496]

0000  02 05 20 06 00 02 00 04 00 0b 00                  .. ........

No.     Time           Source                Destination           Protocol Length Info
    499 88.501659      OneplusT_6e:ef:ab (OnePlus 5) e1:60:1f:8e:2f:d3 (E3DT MMLSAOHHEEHI ) ATT      14     Sent Write Request, Handle: 0x001a (Unknown: Unknown: Client Characteristic Configuration)

Frame 499: 14 bytes on wire (112 bits), 14 bytes captured (112 bits)
Bluetooth
    [Source: OneplusT_6e:ef:ab (94:65:2d:6e:ef:ab)]
    [Destination: e1:60:1f:8e:2f:d3 (e1:60:1f:8e:2f:d3)]
Bluetooth HCI H4
    [Direction: Sent (0x00)]
    HCI Packet Type: ACL Data (0x02)
Bluetooth HCI ACL Packet
Bluetooth L2CAP Protocol
Bluetooth Attribute Protocol
    Opcode: Write Request (0x12)
    Handle: 0x001a (Unknown: Unknown: Client Characteristic Configuration)
    Characteristic Configuration Client: 0x0001, Notification
    [Response in Frame: 501]

0000  02 05 00 09 00 05 00 04 00 12 1a 00 01 00         ..............

No.     Time           Source                Destination           Protocol Length Info
    501 88.584755      e1:60:1f:8e:2f:d3 (E3DT MMLSAOHHEEHI ) OneplusT_6e:ef:ab (OnePlus 5) ATT      10     Rcvd Write Response, Handle: 0x001a (Unknown: Unknown: Client Characteristic Configuration)

Frame 501: 10 bytes on wire (80 bits), 10 bytes captured (80 bits)
Bluetooth
    [Source: e1:60:1f:8e:2f:d3 (e1:60:1f:8e:2f:d3)]
    [Destination: OneplusT_6e:ef:ab (94:65:2d:6e:ef:ab)]
Bluetooth HCI H4
    [Direction: Rcvd (0x01)]
    HCI Packet Type: ACL Data (0x02)
Bluetooth HCI ACL Packet
Bluetooth L2CAP Protocol
Bluetooth Attribute Protocol
    Opcode: Write Response (0x13)
    [Handle: 0x001a (Unknown: Unknown: Client Characteristic Configuration)]
    [Request in Frame: 499]

0000  02 05 20 05 00 01 00 04 00 13                     .. .......

No.     Time           Source                Destination           Protocol Length Info
    502 88.588337      OneplusT_6e:ef:ab (OnePlus 5) e1:60:1f:8e:2f:d3 (E3DT MMLSAOHHEEHI ) ATT      14     Sent Write Request, Handle: 0x0011 (Unknown: Unknown: Client Characteristic Configuration)

Frame 502: 14 bytes on wire (112 bits), 14 bytes captured (112 bits)
Bluetooth
    [Source: OneplusT_6e:ef:ab (94:65:2d:6e:ef:ab)]
    [Destination: e1:60:1f:8e:2f:d3 (e1:60:1f:8e:2f:d3)]
Bluetooth HCI H4
    [Direction: Sent (0x00)]
    HCI Packet Type: ACL Data (0x02)
Bluetooth HCI ACL Packet
Bluetooth L2CAP Protocol
Bluetooth Attribute Protocol
    Opcode: Write Request (0x12)
    Handle: 0x0011 (Unknown: Unknown: Client Characteristic Configuration)
    Characteristic Configuration Client: 0x0001, Notification
    [Response in Frame: 504]

0000  02 05 00 09 00 05 00 04 00 12 11 00 01 00         ..............

No.     Time           Source                Destination           Protocol Length Info
    504 88.720005      e1:60:1f:8e:2f:d3 (E3DT MMLSAOHHEEHI ) OneplusT_6e:ef:ab (OnePlus 5) ATT      10     Rcvd Write Response, Handle: 0x0011 (Unknown: Unknown: Client Characteristic Configuration)

Frame 504: 10 bytes on wire (80 bits), 10 bytes captured (80 bits)
Bluetooth
    [Source: e1:60:1f:8e:2f:d3 (e1:60:1f:8e:2f:d3)]
    [Destination: OneplusT_6e:ef:ab (94:65:2d:6e:ef:ab)]
Bluetooth HCI H4
    [Direction: Rcvd (0x01)]
    HCI Packet Type: ACL Data (0x02)
Bluetooth HCI ACL Packet
Bluetooth L2CAP Protocol
Bluetooth Attribute Protocol
    Opcode: Write Response (0x13)
    [Handle: 0x0011 (Unknown: Unknown: Client Characteristic Configuration)]
    [Request in Frame: 502]

0000  02 05 20 05 00 01 00 04 00 13                     .. .......

No.     Time           Source                Destination           Protocol Length Info
    527 92.143838      f1:01:a5:4e:ff:42 (E3DS JEKSAOHHEEHI ) OneplusT_6e:ef:ab (OnePlus 5) ATT      14     Rcvd Error Response - Attribute Not Found, Handle: 0x0001 (Generic Access Profile)

Frame 527: 14 bytes on wire (112 bits), 14 bytes captured (112 bits)
Bluetooth
    [Source: f1:01:a5:4e:ff:42 (f1:01:a5:4e:ff:42)]
    [Destination: OneplusT_6e:ef:ab (94:65:2d:6e:ef:ab)]
Bluetooth HCI H4
    [Direction: Rcvd (0x01)]
    HCI Packet Type: ACL Data (0x02)
Bluetooth HCI ACL Packet
Bluetooth L2CAP Protocol
Bluetooth Attribute Protocol
    Opcode: Error Response (0x01)
    Request Opcode in Error: Read By Type Request (0x08)
    Handle in Error: 0x0001 (Generic Access Profile)
    Error Code: Attribute Not Found (0x0a)

0000  02 04 20 09 00 05 00 04 00 01 08 01 00 0a         .. ...........

No.     Time           Source                Destination           Protocol Length Info
    529 92.144540      OneplusT_6e:ef:ab (OnePlus 5) f1:01:a5:4e:ff:42 (E3DS JEKSAOHHEEHI ) ATT      16     Sent Read By Type Request, GATT Characteristic Declaration, Handles: 0x0001..0x0007

Frame 529: 16 bytes on wire (128 bits), 16 bytes captured (128 bits)
Bluetooth
    [Source: OneplusT_6e:ef:ab (94:65:2d:6e:ef:ab)]
    [Destination: f1:01:a5:4e:ff:42 (f1:01:a5:4e:ff:42)]
Bluetooth HCI H4
    [Direction: Sent (0x00)]
    HCI Packet Type: ACL Data (0x02)
Bluetooth HCI ACL Packet
Bluetooth L2CAP Protocol
Bluetooth Attribute Protocol
    Opcode: Read By Type Request (0x08)
    Starting Handle: 0x0001
    Ending Handle: 0x0007
    UUID: GATT Characteristic Declaration (0x2803)
    [Response in Frame: 539]

0000  02 04 00 0b 00 07 00 04 00 08 01 00 07 00 03 28   ...............(

No.     Time           Source                Destination           Protocol Length Info
    539 92.168416      f1:01:a5:4e:ff:42 (E3DS JEKSAOHHEEHI ) OneplusT_6e:ef:ab (OnePlus 5) ATT      32     Rcvd Read By Type Response, Attribute List Length: 3, Device Name, Appearance, Peripheral Preferred Connection Parameters

Frame 539: 32 bytes on wire (256 bits), 32 bytes captured (256 bits)
Bluetooth
    [Source: f1:01:a5:4e:ff:42 (f1:01:a5:4e:ff:42)]
    [Destination: OneplusT_6e:ef:ab (94:65:2d:6e:ef:ab)]
Bluetooth HCI H4
    [Direction: Rcvd (0x01)]
    HCI Packet Type: ACL Data (0x02)
Bluetooth HCI ACL Packet
Bluetooth L2CAP Protocol
Bluetooth Attribute Protocol
    Opcode: Read By Type Response (0x09)
    Length: 7
    Attribute Data, Handle: 0x0002, Characteristic Handle: 0x0003, UUID: Device Name
        Handle: 0x0002 (Generic Access Profile: GATT Characteristic Declaration)
        Characteristic Properties: 0x0a, Write, Read
        Characteristic Value Handle: 0x0003 (Generic Access Profile: Device Name)
        UUID: Device Name (0x2a00)
    Attribute Data, Handle: 0x0004, Characteristic Handle: 0x0005, UUID: Appearance
        Handle: 0x0004 (Generic Access Profile: Device Name: GATT Characteristic Declaration)
        Characteristic Properties: 0x02, Read
        Characteristic Value Handle: 0x0005 (Generic Access Profile: Appearance)
        UUID: Appearance (0x2a01)
    Attribute Data, Handle: 0x0006, Characteristic Handle: 0x0007, UUID: Peripheral Preferred Connection Parameters
        Handle: 0x0006 (Generic Access Profile: Appearance: GATT Characteristic Declaration)
        Characteristic Properties: 0x02, Read
        Characteristic Value Handle: 0x0007 (Generic Access Profile: Peripheral Preferred Connection Parameters)
        UUID: Peripheral Preferred Connection Parameters (0x2a04)
    [UUID: GATT Characteristic Declaration (0x2803)]
    [Request in Frame: 529]

0000  02 04 20 1b 00 17 00 04 00 09 07 02 00 0a 03 00   .. .............
0010  00 2a 04 00 02 05 00 01 2a 06 00 02 07 00 04 2a   .*......*......*

No.     Time           Source                Destination           Protocol Length Info
    540 92.169159      OneplusT_6e:ef:ab (OnePlus 5) f1:01:a5:4e:ff:42 (E3DS JEKSAOHHEEHI ) ATT      16     Sent Read By Type Request, GATT Characteristic Declaration, Handles: 0x0007..0x0007

Frame 540: 16 bytes on wire (128 bits), 16 bytes captured (128 bits)
Bluetooth
    [Source: OneplusT_6e:ef:ab (94:65:2d:6e:ef:ab)]
    [Destination: f1:01:a5:4e:ff:42 (f1:01:a5:4e:ff:42)]
Bluetooth HCI H4
    [Direction: Sent (0x00)]
    HCI Packet Type: ACL Data (0x02)
Bluetooth HCI ACL Packet
Bluetooth L2CAP Protocol
Bluetooth Attribute Protocol
    Opcode: Read By Type Request (0x08)
    Starting Handle: 0x0007
    Ending Handle: 0x0007
    UUID: GATT Characteristic Declaration (0x2803)
    [Response in Frame: 542]

0000  02 04 00 0b 00 07 00 04 00 08 07 00 07 00 03 28   ...............(

No.     Time           Source                Destination           Protocol Length Info
    542 92.183145      f1:01:a5:4e:ff:42 (E3DS JEKSAOHHEEHI ) OneplusT_6e:ef:ab (OnePlus 5) ATT      14     Rcvd Error Response - Attribute Not Found, Handle: 0x0007 (Generic Access Profile: Peripheral Preferred Connection Parameters)

Frame 542: 14 bytes on wire (112 bits), 14 bytes captured (112 bits)
Bluetooth
    [Source: f1:01:a5:4e:ff:42 (f1:01:a5:4e:ff:42)]
    [Destination: OneplusT_6e:ef:ab (94:65:2d:6e:ef:ab)]
Bluetooth HCI H4
    [Direction: Rcvd (0x01)]
    HCI Packet Type: ACL Data (0x02)
Bluetooth HCI ACL Packet
Bluetooth L2CAP Protocol
Bluetooth Attribute Protocol
    Opcode: Error Response (0x01)
    Request Opcode in Error: Read By Type Request (0x08)
    Handle in Error: 0x0007 (Generic Access Profile: Peripheral Preferred Connection Parameters)
    Error Code: Attribute Not Found (0x0a)
    [UUID: GATT Characteristic Declaration (0x2803)]
    [Request in Frame: 540]

0000  02 04 20 09 00 05 00 04 00 01 08 07 00 0a         .. ...........

No.     Time           Source                Destination           Protocol Length Info
    543 92.183745      OneplusT_6e:ef:ab (OnePlus 5) f1:01:a5:4e:ff:42 (E3DS JEKSAOHHEEHI ) ATT      16     Sent Read By Type Request, GATT Include Declaration, Handles: 0x0008..0x000b

Frame 543: 16 bytes on wire (128 bits), 16 bytes captured (128 bits)
Bluetooth
    [Source: OneplusT_6e:ef:ab (94:65:2d:6e:ef:ab)]
    [Destination: f1:01:a5:4e:ff:42 (f1:01:a5:4e:ff:42)]
Bluetooth HCI H4
    [Direction: Sent (0x00)]
    HCI Packet Type: ACL Data (0x02)
Bluetooth HCI ACL Packet
Bluetooth L2CAP Protocol
Bluetooth Attribute Protocol
    Opcode: Read By Type Request (0x08)
    Starting Handle: 0x0008
    Ending Handle: 0x000b
    UUID: GATT Include Declaration (0x2802)
    [Response in Frame: 545]

0000  02 04 00 0b 00 07 00 04 00 08 08 00 0b 00 02 28   ...............(

No.     Time           Source                Destination           Protocol Length Info
    545 92.203484      f1:01:a5:4e:ff:42 (E3DS JEKSAOHHEEHI ) OneplusT_6e:ef:ab (OnePlus 5) ATT      14     Rcvd Error Response - Attribute Not Found, Handle: 0x0008 (Generic Attribute Profile)

Frame 545: 14 bytes on wire (112 bits), 14 bytes captured (112 bits)
Bluetooth
    [Source: f1:01:a5:4e:ff:42 (f1:01:a5:4e:ff:42)]
    [Destination: OneplusT_6e:ef:ab (94:65:2d:6e:ef:ab)]
Bluetooth HCI H4
    [Direction: Rcvd (0x01)]
    HCI Packet Type: ACL Data (0x02)
Bluetooth HCI ACL Packet
Bluetooth L2CAP Protocol
Bluetooth Attribute Protocol
    Opcode: Error Response (0x01)
    Request Opcode in Error: Read By Type Request (0x08)
    Handle in Error: 0x0008 (Generic Attribute Profile)
    Error Code: Attribute Not Found (0x0a)
    [UUID: GATT Include Declaration (0x2802)]
    [Request in Frame: 543]

0000  02 04 20 09 00 05 00 04 00 01 08 08 00 0a         .. ...........

No.     Time           Source                Destination           Protocol Length Info
    546 92.204963      OneplusT_6e:ef:ab (OnePlus 5) f1:01:a5:4e:ff:42 (E3DS JEKSAOHHEEHI ) ATT      16     Sent Read By Type Request, GATT Characteristic Declaration, Handles: 0x0008..0x000b

Frame 546: 16 bytes on wire (128 bits), 16 bytes captured (128 bits)
Bluetooth
    [Source: OneplusT_6e:ef:ab (94:65:2d:6e:ef:ab)]
    [Destination: f1:01:a5:4e:ff:42 (f1:01:a5:4e:ff:42)]
Bluetooth HCI H4
    [Direction: Sent (0x00)]
    HCI Packet Type: ACL Data (0x02)
Bluetooth HCI ACL Packet
Bluetooth L2CAP Protocol
Bluetooth Attribute Protocol
    Opcode: Read By Type Request (0x08)
    Starting Handle: 0x0008
    Ending Handle: 0x000b
    UUID: GATT Characteristic Declaration (0x2803)
    [Response in Frame: 548]

0000  02 04 00 0b 00 07 00 04 00 08 08 00 0b 00 03 28   ...............(

No.     Time           Source                Destination           Protocol Length Info
    548 92.239392      f1:01:a5:4e:ff:42 (E3DS JEKSAOHHEEHI ) OneplusT_6e:ef:ab (OnePlus 5) ATT      18     Rcvd Read By Type Response, Attribute List Length: 1, Service Changed

Frame 548: 18 bytes on wire (144 bits), 18 bytes captured (144 bits)
Bluetooth
    [Source: f1:01:a5:4e:ff:42 (f1:01:a5:4e:ff:42)]
    [Destination: OneplusT_6e:ef:ab (94:65:2d:6e:ef:ab)]
Bluetooth HCI H4
    [Direction: Rcvd (0x01)]
    HCI Packet Type: ACL Data (0x02)
Bluetooth HCI ACL Packet
Bluetooth L2CAP Protocol
Bluetooth Attribute Protocol
    Opcode: Read By Type Response (0x09)
    Length: 7
    Attribute Data, Handle: 0x0009, Characteristic Handle: 0x000a, UUID: Service Changed
        Handle: 0x0009 (Generic Attribute Profile: GATT Characteristic Declaration)
        Characteristic Properties: 0x20, Indicate
        Characteristic Value Handle: 0x000a (Generic Attribute Profile: Service Changed)
        UUID: Service Changed (0x2a05)
    [UUID: GATT Characteristic Declaration (0x2803)]
    [Request in Frame: 546]

0000  02 04 20 0d 00 09 00 04 00 09 07 09 00 20 0a 00   .. .......... ..
0010  05 2a                                             .*

No.     Time           Source                Destination           Protocol Length Info
    549 92.239855      OneplusT_6e:ef:ab (OnePlus 5) f1:01:a5:4e:ff:42 (E3DS JEKSAOHHEEHI ) ATT      16     Sent Read By Type Request, GATT Characteristic Declaration, Handles: 0x000a..0x000b

Frame 549: 16 bytes on wire (128 bits), 16 bytes captured (128 bits)
Bluetooth
    [Source: OneplusT_6e:ef:ab (94:65:2d:6e:ef:ab)]
    [Destination: f1:01:a5:4e:ff:42 (f1:01:a5:4e:ff:42)]
Bluetooth HCI H4
    [Direction: Sent (0x00)]
    HCI Packet Type: ACL Data (0x02)
Bluetooth HCI ACL Packet
Bluetooth L2CAP Protocol
Bluetooth Attribute Protocol
    Opcode: Read By Type Request (0x08)
    Starting Handle: 0x000a
    Ending Handle: 0x000b
    UUID: GATT Characteristic Declaration (0x2803)
    [Response in Frame: 551]

0000  02 04 00 0b 00 07 00 04 00 08 0a 00 0b 00 03 28   ...............(

No.     Time           Source                Destination           Protocol Length Info
    551 92.250779      f1:01:a5:4e:ff:42 (E3DS JEKSAOHHEEHI ) OneplusT_6e:ef:ab (OnePlus 5) ATT      14     Rcvd Error Response - Attribute Not Found, Handle: 0x000a (Generic Attribute Profile: Service Changed)

Frame 551: 14 bytes on wire (112 bits), 14 bytes captured (112 bits)
Bluetooth
    [Source: f1:01:a5:4e:ff:42 (f1:01:a5:4e:ff:42)]
    [Destination: OneplusT_6e:ef:ab (94:65:2d:6e:ef:ab)]
Bluetooth HCI H4
    [Direction: Rcvd (0x01)]
    HCI Packet Type: ACL Data (0x02)
Bluetooth HCI ACL Packet
Bluetooth L2CAP Protocol
Bluetooth Attribute Protocol
    Opcode: Error Response (0x01)
    Request Opcode in Error: Read By Type Request (0x08)
    Handle in Error: 0x000a (Generic Attribute Profile: Service Changed)
    Error Code: Attribute Not Found (0x0a)
    [UUID: GATT Characteristic Declaration (0x2803)]
    [Request in Frame: 549]

0000  02 04 20 09 00 05 00 04 00 01 08 0a 00 0a         .. ...........

No.     Time           Source                Destination           Protocol Length Info
    552 92.251321      OneplusT_6e:ef:ab (OnePlus 5) f1:01:a5:4e:ff:42 (E3DS JEKSAOHHEEHI ) ATT      14     Sent Find Information Request, Handles: 0x000b..0x000b

Frame 552: 14 bytes on wire (112 bits), 14 bytes captured (112 bits)
Bluetooth
    [Source: OneplusT_6e:ef:ab (94:65:2d:6e:ef:ab)]
    [Destination: f1:01:a5:4e:ff:42 (f1:01:a5:4e:ff:42)]
Bluetooth HCI H4
    [Direction: Sent (0x00)]
    HCI Packet Type: ACL Data (0x02)
Bluetooth HCI ACL Packet
Bluetooth L2CAP Protocol
Bluetooth Attribute Protocol
    Opcode: Find Information Request (0x04)
    Starting Handle: 0x000b
    Ending Handle: 0x000b
    [Response in Frame: 554]

0000  02 04 00 09 00 05 00 04 00 04 0b 00 0b 00         ..............

No.     Time           Source                Destination           Protocol Length Info
    554 92.265704      f1:01:a5:4e:ff:42 (E3DS JEKSAOHHEEHI ) OneplusT_6e:ef:ab (OnePlus 5) ATT      15     Rcvd Find Information Response, Handle: 0x000b (Generic Attribute Profile: Service Changed: Client Characteristic Configuration)

Frame 554: 15 bytes on wire (120 bits), 15 bytes captured (120 bits)
Bluetooth
    [Source: f1:01:a5:4e:ff:42 (f1:01:a5:4e:ff:42)]
    [Destination: OneplusT_6e:ef:ab (94:65:2d:6e:ef:ab)]
Bluetooth HCI H4
    [Direction: Rcvd (0x01)]
    HCI Packet Type: ACL Data (0x02)
Bluetooth HCI ACL Packet
Bluetooth L2CAP Protocol
Bluetooth Attribute Protocol
    Opcode: Find Information Response (0x05)
    UUID Format: 16-bit UUIDs (0x01)
    Information Data, Handle: 0x000b, UUID: Client Characteristic Configuration
        Handle: 0x000b (Generic Attribute Profile: Service Changed: Client Characteristic Configuration)
        UUID: Client Characteristic Configuration (0x2902)
    [Request in Frame: 552]

0000  02 04 20 0a 00 06 00 04 00 05 01 0b 00 02 29      .. ...........)

No.     Time           Source                Destination           Protocol Length Info
    555 92.266368      OneplusT_6e:ef:ab (OnePlus 5) f1:01:a5:4e:ff:42 (E3DS JEKSAOHHEEHI ) ATT      16     Sent Read By Type Request, GATT Include Declaration, Handles: 0x000c..0x000e

Frame 555: 16 bytes on wire (128 bits), 16 bytes captured (128 bits)
Bluetooth
    [Source: OneplusT_6e:ef:ab (94:65:2d:6e:ef:ab)]
    [Destination: f1:01:a5:4e:ff:42 (f1:01:a5:4e:ff:42)]
Bluetooth HCI H4
    [Direction: Sent (0x00)]
    HCI Packet Type: ACL Data (0x02)
Bluetooth HCI ACL Packet
Bluetooth L2CAP Protocol
Bluetooth Attribute Protocol
    Opcode: Read By Type Request (0x08)
    Starting Handle: 0x000c
    Ending Handle: 0x000e
    UUID: GATT Include Declaration (0x2802)
    [Response in Frame: 557]

0000  02 04 00 0b 00 07 00 04 00 08 0c 00 0e 00 02 28   ...............(

No.     Time           Source                Destination           Protocol Length Info
    557 92.281087      f1:01:a5:4e:ff:42 (E3DS JEKSAOHHEEHI ) OneplusT_6e:ef:ab (OnePlus 5) ATT      14     Rcvd Error Response - Attribute Not Found, Handle: 0x000c (Unknown)

Frame 557: 14 bytes on wire (112 bits), 14 bytes captured (112 bits)
Bluetooth
    [Source: f1:01:a5:4e:ff:42 (f1:01:a5:4e:ff:42)]
    [Destination: OneplusT_6e:ef:ab (94:65:2d:6e:ef:ab)]
Bluetooth HCI H4
    [Direction: Rcvd (0x01)]
    HCI Packet Type: ACL Data (0x02)
Bluetooth HCI ACL Packet
Bluetooth L2CAP Protocol
Bluetooth Attribute Protocol
    Opcode: Error Response (0x01)
    Request Opcode in Error: Read By Type Request (0x08)
    Handle in Error: 0x000c (Unknown)
    Error Code: Attribute Not Found (0x0a)
    [UUID: GATT Include Declaration (0x2802)]
    [Request in Frame: 555]

0000  02 04 20 09 00 05 00 04 00 01 08 0c 00 0a         .. ...........

No.     Time           Source                Destination           Protocol Length Info
    558 92.281748      OneplusT_6e:ef:ab (OnePlus 5) f1:01:a5:4e:ff:42 (E3DS JEKSAOHHEEHI ) ATT      16     Sent Read By Type Request, GATT Characteristic Declaration, Handles: 0x000c..0x000e

Frame 558: 16 bytes on wire (128 bits), 16 bytes captured (128 bits)
Bluetooth
    [Source: OneplusT_6e:ef:ab (94:65:2d:6e:ef:ab)]
    [Destination: f1:01:a5:4e:ff:42 (f1:01:a5:4e:ff:42)]
Bluetooth HCI H4
    [Direction: Sent (0x00)]
    HCI Packet Type: ACL Data (0x02)
Bluetooth HCI ACL Packet
Bluetooth L2CAP Protocol
Bluetooth Attribute Protocol
    Opcode: Read By Type Request (0x08)
    Starting Handle: 0x000c
    Ending Handle: 0x000e
    UUID: GATT Characteristic Declaration (0x2803)
    [Response in Frame: 560]

0000  02 04 00 0b 00 07 00 04 00 08 0c 00 0e 00 03 28   ...............(

No.     Time           Source                Destination           Protocol Length Info
    560 92.296270      f1:01:a5:4e:ff:42 (E3DS JEKSAOHHEEHI ) OneplusT_6e:ef:ab (OnePlus 5) ATT      32     Rcvd Read By Type Response, Attribute List Length: 1, Unknown

Frame 560: 32 bytes on wire (256 bits), 32 bytes captured (256 bits)
Bluetooth
    [Source: f1:01:a5:4e:ff:42 (f1:01:a5:4e:ff:42)]
    [Destination: OneplusT_6e:ef:ab (94:65:2d:6e:ef:ab)]
Bluetooth HCI H4
    [Direction: Rcvd (0x01)]
    HCI Packet Type: ACL Data (0x02)
Bluetooth HCI ACL Packet
Bluetooth L2CAP Protocol
Bluetooth Attribute Protocol
    Opcode: Read By Type Response (0x09)
    Length: 21
    Attribute Data, Handle: 0x000d, Characteristic Handle: 0x000e, UUID128: Unknown
        Handle: 0x000d (Unknown: GATT Characteristic Declaration)
        Characteristic Properties: 0x06, Write without Response, Read
        Characteristic Value Handle: 0x000e (Unknown: Unknown)
        UUID: 2020202053555441545320524553414c
    [UUID: GATT Characteristic Declaration (0x2803)]
    [Request in Frame: 558]

0000  02 04 20 1b 00 17 00 04 00 09 15 0d 00 06 0e 00   .. .............
0010  20 20 20 20 53 55 54 41 54 53 20 52 45 53 41 4c       SUTATS RESAL

No.     Time           Source                Destination           Protocol Length Info
    561 92.296745      OneplusT_6e:ef:ab (OnePlus 5) f1:01:a5:4e:ff:42 (E3DS JEKSAOHHEEHI ) ATT      16     Sent Read By Type Request, GATT Characteristic Declaration, Handles: 0x000e..0x000e

Frame 561: 16 bytes on wire (128 bits), 16 bytes captured (128 bits)
Bluetooth
    [Source: OneplusT_6e:ef:ab (94:65:2d:6e:ef:ab)]
    [Destination: f1:01:a5:4e:ff:42 (f1:01:a5:4e:ff:42)]
Bluetooth HCI H4
    [Direction: Sent (0x00)]
    HCI Packet Type: ACL Data (0x02)
Bluetooth HCI ACL Packet
Bluetooth L2CAP Protocol
Bluetooth Attribute Protocol
    Opcode: Read By Type Request (0x08)
    Starting Handle: 0x000e
    Ending Handle: 0x000e
    UUID: GATT Characteristic Declaration (0x2803)
    [Response in Frame: 563]

0000  02 04 00 0b 00 07 00 04 00 08 0e 00 0e 00 03 28   ...............(

No.     Time           Source                Destination           Protocol Length Info
    563 92.311156      f1:01:a5:4e:ff:42 (E3DS JEKSAOHHEEHI ) OneplusT_6e:ef:ab (OnePlus 5) ATT      14     Rcvd Error Response - Attribute Not Found, Handle: 0x000e (Unknown: Unknown)

Frame 563: 14 bytes on wire (112 bits), 14 bytes captured (112 bits)
Bluetooth
    [Source: f1:01:a5:4e:ff:42 (f1:01:a5:4e:ff:42)]
    [Destination: OneplusT_6e:ef:ab (94:65:2d:6e:ef:ab)]
Bluetooth HCI H4
    [Direction: Rcvd (0x01)]
    HCI Packet Type: ACL Data (0x02)
Bluetooth HCI ACL Packet
Bluetooth L2CAP Protocol
Bluetooth Attribute Protocol
    Opcode: Error Response (0x01)
    Request Opcode in Error: Read By Type Request (0x08)
    Handle in Error: 0x000e (Unknown: Unknown)
    Error Code: Attribute Not Found (0x0a)
    [UUID: GATT Characteristic Declaration (0x2803)]
    [Request in Frame: 561]

0000  02 04 20 09 00 05 00 04 00 01 08 0e 00 0a         .. ...........

No.     Time           Source                Destination           Protocol Length Info
    564 92.311690      OneplusT_6e:ef:ab (OnePlus 5) f1:01:a5:4e:ff:42 (E3DS JEKSAOHHEEHI ) ATT      16     Sent Read By Type Request, GATT Include Declaration, Handles: 0x000f..0x001a

Frame 564: 16 bytes on wire (128 bits), 16 bytes captured (128 bits)
Bluetooth
    [Source: OneplusT_6e:ef:ab (94:65:2d:6e:ef:ab)]
    [Destination: f1:01:a5:4e:ff:42 (f1:01:a5:4e:ff:42)]
Bluetooth HCI H4
    [Direction: Sent (0x00)]
    HCI Packet Type: ACL Data (0x02)
Bluetooth HCI ACL Packet
Bluetooth L2CAP Protocol
Bluetooth Attribute Protocol
    Opcode: Read By Type Request (0x08)
    Starting Handle: 0x000f
    Ending Handle: 0x001a
    UUID: GATT Include Declaration (0x2802)
    [Response in Frame: 566]

0000  02 04 00 0b 00 07 00 04 00 08 0f 00 1a 00 02 28   ...............(

No.     Time           Source                Destination           Protocol Length Info
    566 92.325592      f1:01:a5:4e:ff:42 (E3DS JEKSAOHHEEHI ) OneplusT_6e:ef:ab (OnePlus 5) ATT      14     Rcvd Error Response - Attribute Not Found, Handle: 0x000f (Unknown: Unknown: GATT Characteristic Declaration)

Frame 566: 14 bytes on wire (112 bits), 14 bytes captured (112 bits)
Bluetooth
    [Source: f1:01:a5:4e:ff:42 (f1:01:a5:4e:ff:42)]
    [Destination: OneplusT_6e:ef:ab (94:65:2d:6e:ef:ab)]
Bluetooth HCI H4
    [Direction: Rcvd (0x01)]
    HCI Packet Type: ACL Data (0x02)
Bluetooth HCI ACL Packet
Bluetooth L2CAP Protocol
Bluetooth Attribute Protocol
    Opcode: Error Response (0x01)
    Request Opcode in Error: Read By Type Request (0x08)
    Handle in Error: 0x000f (Unknown: Unknown: GATT Characteristic Declaration)
    Error Code: Attribute Not Found (0x0a)
    [UUID: GATT Include Declaration (0x2802)]
    [Request in Frame: 564]

0000  02 04 20 09 00 05 00 04 00 01 08 0f 00 0a         .. ...........

No.     Time           Source                Destination           Protocol Length Info
    567 92.326184      OneplusT_6e:ef:ab (OnePlus 5) f1:01:a5:4e:ff:42 (E3DS JEKSAOHHEEHI ) ATT      16     Sent Read By Type Request, GATT Characteristic Declaration, Handles: 0x000f..0x001a

Frame 567: 16 bytes on wire (128 bits), 16 bytes captured (128 bits)
Bluetooth
    [Source: OneplusT_6e:ef:ab (94:65:2d:6e:ef:ab)]
    [Destination: f1:01:a5:4e:ff:42 (f1:01:a5:4e:ff:42)]
Bluetooth HCI H4
    [Direction: Sent (0x00)]
    HCI Packet Type: ACL Data (0x02)
Bluetooth HCI ACL Packet
Bluetooth L2CAP Protocol
Bluetooth Attribute Protocol
    Opcode: Read By Type Request (0x08)
    Starting Handle: 0x000f
    Ending Handle: 0x001a
    UUID: GATT Characteristic Declaration (0x2803)
    [Response in Frame: 569]

0000  02 04 00 0b 00 07 00 04 00 08 0f 00 1a 00 03 28   ...............(

No.     Time           Source                Destination           Protocol Length Info
    569 92.341310      f1:01:a5:4e:ff:42 (E3DS JEKSAOHHEEHI ) OneplusT_6e:ef:ab (OnePlus 5) ATT      32     Rcvd Read By Type Response, Attribute List Length: 1, Unknown

Frame 569: 32 bytes on wire (256 bits), 32 bytes captured (256 bits)
Bluetooth
    [Source: f1:01:a5:4e:ff:42 (f1:01:a5:4e:ff:42)]
    [Destination: OneplusT_6e:ef:ab (94:65:2d:6e:ef:ab)]
Bluetooth HCI H4
    [Direction: Rcvd (0x01)]
    HCI Packet Type: ACL Data (0x02)
Bluetooth HCI ACL Packet
Bluetooth L2CAP Protocol
Bluetooth Attribute Protocol
    Opcode: Read By Type Response (0x09)
    Length: 21
    Attribute Data, Handle: 0x0010, Characteristic Handle: 0x0011, UUID128: Unknown
        Handle: 0x0010 (Unknown: Unknown: GATT Characteristic Declaration)
        Characteristic Properties: 0x02, Read
        Characteristic Value Handle: 0x0011 (Unknown: Unknown)
        UUID: 202020202020534f504320524f544f4d
    [UUID: GATT Characteristic Declaration (0x2803)]
    [Request in Frame: 567]

0000  02 04 20 1b 00 17 00 04 00 09 15 10 00 02 11 00   .. .............
0010  20 20 20 20 20 20 53 4f 50 43 20 52 4f 54 4f 4d         SOPC ROTOM

No.     Time           Source                Destination           Protocol Length Info
    570 92.341721      OneplusT_6e:ef:ab (OnePlus 5) f1:01:a5:4e:ff:42 (E3DS JEKSAOHHEEHI ) ATT      16     Sent Read By Type Request, GATT Characteristic Declaration, Handles: 0x0011..0x001a

Frame 570: 16 bytes on wire (128 bits), 16 bytes captured (128 bits)
Bluetooth
    [Source: OneplusT_6e:ef:ab (94:65:2d:6e:ef:ab)]
    [Destination: f1:01:a5:4e:ff:42 (f1:01:a5:4e:ff:42)]
Bluetooth HCI H4
    [Direction: Sent (0x00)]
    HCI Packet Type: ACL Data (0x02)
Bluetooth HCI ACL Packet
Bluetooth L2CAP Protocol
Bluetooth Attribute Protocol
    Opcode: Read By Type Request (0x08)
    Starting Handle: 0x0011
    Ending Handle: 0x001a
    UUID: GATT Characteristic Declaration (0x2803)
    [Response in Frame: 572]

0000  02 04 00 0b 00 07 00 04 00 08 11 00 1a 00 03 28   ...............(

No.     Time           Source                Destination           Protocol Length Info
    572 92.355928      f1:01:a5:4e:ff:42 (E3DS JEKSAOHHEEHI ) OneplusT_6e:ef:ab (OnePlus 5) ATT      32     Rcvd Read By Type Response, Attribute List Length: 1, Unknown

Frame 572: 32 bytes on wire (256 bits), 32 bytes captured (256 bits)
Bluetooth
    [Source: f1:01:a5:4e:ff:42 (f1:01:a5:4e:ff:42)]
    [Destination: OneplusT_6e:ef:ab (94:65:2d:6e:ef:ab)]
Bluetooth HCI H4
    [Direction: Rcvd (0x01)]
    HCI Packet Type: ACL Data (0x02)
Bluetooth HCI ACL Packet
Bluetooth L2CAP Protocol
Bluetooth Attribute Protocol
    Opcode: Read By Type Response (0x09)
    Length: 21
    Attribute Data, Handle: 0x0012, Characteristic Handle: 0x0013, UUID128: Unknown
        Handle: 0x0012 (Unknown: Unknown: GATT Characteristic Declaration)
        Characteristic Properties: 0x04, Write without Response
        Characteristic Value Handle: 0x0013 (Unknown: Unknown)
        UUID: 202020202020534f504920524f544f4d
    [UUID: GATT Characteristic Declaration (0x2803)]
    [Request in Frame: 570]

0000  02 04 20 1b 00 17 00 04 00 09 15 12 00 04 13 00   .. .............
0010  20 20 20 20 20 20 53 4f 50 49 20 52 4f 54 4f 4d         SOPI ROTOM

No.     Time           Source                Destination           Protocol Length Info
    573 92.356378      OneplusT_6e:ef:ab (OnePlus 5) f1:01:a5:4e:ff:42 (E3DS JEKSAOHHEEHI ) ATT      16     Sent Read By Type Request, GATT Characteristic Declaration, Handles: 0x0013..0x001a

Frame 573: 16 bytes on wire (128 bits), 16 bytes captured (128 bits)
Bluetooth
    [Source: OneplusT_6e:ef:ab (94:65:2d:6e:ef:ab)]
    [Destination: f1:01:a5:4e:ff:42 (f1:01:a5:4e:ff:42)]
Bluetooth HCI H4
    [Direction: Sent (0x00)]
    HCI Packet Type: ACL Data (0x02)
Bluetooth HCI ACL Packet
Bluetooth L2CAP Protocol
Bluetooth Attribute Protocol
    Opcode: Read By Type Request (0x08)
    Starting Handle: 0x0013
    Ending Handle: 0x001a
    UUID: GATT Characteristic Declaration (0x2803)
    [Response in Frame: 575]

0000  02 04 00 0b 00 07 00 04 00 08 13 00 1a 00 03 28   ...............(

No.     Time           Source                Destination           Protocol Length Info
    575 92.377416      f1:01:a5:4e:ff:42 (E3DS JEKSAOHHEEHI ) OneplusT_6e:ef:ab (OnePlus 5) ATT      32     Rcvd Read By Type Response, Attribute List Length: 1, Unknown

Frame 575: 32 bytes on wire (256 bits), 32 bytes captured (256 bits)
Bluetooth
    [Source: f1:01:a5:4e:ff:42 (f1:01:a5:4e:ff:42)]
    [Destination: OneplusT_6e:ef:ab (94:65:2d:6e:ef:ab)]
Bluetooth HCI H4
    [Direction: Rcvd (0x01)]
    HCI Packet Type: ACL Data (0x02)
Bluetooth HCI ACL Packet
Bluetooth L2CAP Protocol
Bluetooth Attribute Protocol
    Opcode: Read By Type Response (0x09)
    Length: 21
    Attribute Data, Handle: 0x0014, Characteristic Handle: 0x0015, UUID128: Unknown
        Handle: 0x0014 (Unknown: Unknown: GATT Characteristic Declaration)
        Characteristic Properties: 0x12, Notify, Read
        Characteristic Value Handle: 0x0015 (Unknown: Unknown)
        UUID: 202020202045444f4d4d20524f544f4d
    [UUID: GATT Characteristic Declaration (0x2803)]
    [Request in Frame: 573]

0000  02 04 20 1b 00 17 00 04 00 09 15 14 00 12 15 00   .. .............
0010  20 20 20 20 20 45 44 4f 4d 4d 20 52 4f 54 4f 4d        EDOMM ROTOM

